:020000040040BA
:1000000020F400206D10400069104000691040008D
:1000100069104000691040006910400000000000B5
:100020000000000000000000000000006910400017
:10003000691040000000000069104000159B40005E
:1000400069104000691040006910400069104000CC
:1000500069104000691040006910400069104000BC
:1000600069104000691040006910400069104000AC
:10007000691040006910400069104000691040009C
:10008000691040006910400069104000691040008C
:10009000691040001582400069104000691040005E
:1000A000691040006910400069104000691040006C
:1000B000691040006910400069104000691040005C
:1000C000691040006910400069104000691040004C
:1000D000691040006910400069104000691040003C
:1000E000691040006910400069104000691040002C
:1000F000617940006910400010B5054C237833B990
:10010000044B13B10448AFF300800123237010BDEA
:10011000383A002000000000541C410008B5064B8E
:100120001BB106480649AFF300800648036813B1C7
:10013000054B03B1984708BD00000000541C410066
:100140003C3A0020541C41000000000010B50D484E
:100150000D4B984700203E210C4B98470C4CA04774
:100160000028FCD00B4B98470B4A0C4B9A620C4C66
:10017000A0470028FCD010200A4B98470A4B98470C
:1001800010BD00BF000E2707191240004D0D4000A2
:10019000A10D4000B10D4000013F132000040E40AE
:1001A000C10D4000E90C40000911400010B50446A3
:1001B000104B984780232360636843F0010363601A
:1001C000636843F010036360636823F08003636037
:1001D00020460021084B9847636823F002036360C0
:1001E000636823F00403636020460021034B9847B3
:1001F00010BD00BF290E4000390E4000510E4000D6
:10020000F8B505460C46164618461449144B98474F
:1002100007462846216800221346DFF85CC0E04705
:100220002846216820220F4B984728462168FAB2B9
:100230000D4B98472846216808220C4B98472846C2
:10024000216872080A4B984786F001022846216807
:1002500002F00102074B9847F8BD00BF000E2707C8
:10026000750F4000610F40008D0F40001D0F4000D2
:10027000DD0E4000FD0E4000A50F400008B54368AC
:1002800013F0040F05D009680F290BD8064B9847C7
:1002900008BD0B68032B05D8012202FA03F1C943FC
:1002A000014B984708BD00BF390E400010B5044609
:1002B000236913F4007FFBD020460F21024B98479F
:1002C0004FF08073236010BD390E40002DE9F041DE
:1002D0000C46904660B9002A0EDD8F18094E0A4D73
:1002E000306821462B6898470134BC42F8D106E0BB
:1002F0004FF0FF30BDE8F0810020BDE8F0814046BE
:10030000BDE8F08128B7002020B700202DE9F0419A
:100310000E461546013802280FD892B10024DFF8A6
:100320003C800D4FD8F80000315D3B6898470028AD
:100330000ADB0134A542F5D10AE04FF0FF30BDE8F9
:10034000F0810020BDE8F0814FF0FF30BDE8F08182
:100350002046BDE8F08100BF24B7002028B7002068
:10036000F0B583B004460F461646036843F0100309
:100370000360012201AB304DA84720B1226822F072
:100380001002226056E0019B13F0040F05D1236890
:1003900023F010032360FF204CE02EB9236823F0E4
:1003A00010032360002045E02046394604226B46B6
:1003B000214DA84720B1226822F01002226039E0C6
:1003C000019B13F4805F1DBF009A82F04002C2F3CC
:1003D0008012012213F4005F0AD0009800F0800020
:1003E000D0F1010138BF0021002818BF012200E030
:1003F000012113F4006F03D0009B13F0200F05D1EF
:100400002AB1636843F00103636004E0002163687C
:1004100023F00103636021B1636843F0020363606A
:1004200003E0636823F002036360236823F0100392
:100430002360002003B0F0BDE90740002DE9F04142
:1004400082B004460E46036843F0100303600022A6
:1004500001AB594DA84720B1226822F0100222605A
:10046000A6E0019B23F4B04343F48063019320464C
:1004700031460022514DA84720B1226822F01002D7
:10048000226095E020463146042240F2E1134B4DB4
:10049000A84720B1226822F01002226088E020469E
:1004A0003146002201AB444DA84720B1226822F01A
:1004B000100222607CE0019B43F4445301932046E8
:1004C000314600223D4DA84720B1226822F010029B
:1004D00022606DE0019B23F4806343F40073019379
:1004E000204631460022354DA84720B1226822F02F
:1004F000100222605CE0324D4FF001082E4F204682
:100500003146424601ABB84720B1226822F01002C2
:1005100022604DE0019B13F0200F07D1013DEED189
:10052000236823F010032360012041E02046314678
:100530001E226B46204DA84720B1226822F01002EF
:10054000226035E0009B13F4807F09D113F0400F47
:100550000CD113F0800F08BF002309D0002300E066
:100560000123626842F00102626005E00123FFE7B7
:10057000626822F00102626023B1636843F0020303
:10058000636003E0636823F002036360E36843F0A1
:100590000103E3600B4B1A6842F008021A601A6804
:1005A00042F004021A60236823F010032360002045
:1005B00002B0BDE8F08100BFE907400049084000F3
:1005C00040420F00004003402DE9F04683B006464C
:1005D0008A464FF4004302AF47F8043D026842F0F8
:1005E0001002026000220E4CA0470A244FF00009BE
:1005F0000C4D304651464A463B46A847013C019BBC
:1006000013F4004F01D0002CF3D1336823F0100312
:100610003360201C18BF012003B0BDE8F08600BF86
:1006200049084000E90740002DE9F04383B0054642
:10063000884614463848394B9847394B9C4266D80F
:10064000384B9C420FD8384B9C420FD8374B9C42BA
:100650000FD8374B9C420FD8364B9C428CBF4FF47F
:10066000802400240AE04FF4A01407E04FF4801423
:1006700004E04FF4402401E04FF400246B6823F4BD
:10068000E0136B606B681C436C6002AB002243F8A4
:10069000042D2A6842F010022A60284641460222B0
:1006A000254CA047019B052B26D044464FF020093E
:1006B0000227214E013404F01F04284621463A4601
:1006C00001ABB0470198222805D009F1FF3313F0A0
:1006D000FF09EFD117E02B6823F010032B602146B0
:1006E0002846012201AB144EB047A0450FD0284642
:1006F00041460A4B98470AE02B6823F010032B6011
:1007000041460024ECE72B6823F010032B60002007
:1007100003B0BDE8F08300BF00400340C9054000BE
:10072000001C4E0E00688909000E270700B4C4049F
:10073000005A6202002D3101E907400003880133AD
:100740009BB28B4228BF002303807047F0B4076838
:10075000416804693B6823F008033B60002303857C
:10076000C384858C65B11A464FF00046E150E51808
:100770006E600132858C01F2EE5108339542F5D856
:1007800004EBC5054FF0404345F8043C24F0030456
:10079000FC61F0BC704700BFF0B407688168C468B2
:1007A0003B6823F004033B6000234384058C65B160
:1007B0001A461E4621F00305E550E5186E60013229
:1007C000058C803108339542F4D805F10055013D80
:1007D00054F8353043F0020344F8353024F0030474
:1007E000BC61F0BC704700BF10B483B0846814F0E3
:1007F000040FFBD0920402F4F80242F0C04242F42B
:100800000032C90501F078610A4342630022019277
:100810000C4905E0019A01320192019A8A420CD8F2
:10082000826812F0040FF5D0826812F0040FFBD03A
:10083000426B92B21A60002000E0012003B05DF824
:10084000044B70473F420F0010B483B0846814F02B
:10085000040FFBD0920402F4F80242F0A04242F4EA
:100860000032C90501F078610A439BB21A43426322
:1008700000230193094A05E0019B01330193019B89
:10088000934205D8836813F0040FF5D0002000E0F0
:10089000012003B05DF8044B704700BF3F420F00DA
:1008A00070B504460D461646002303604FF0FF3333
:1008B000C362036843F020030360072303627723C6
:1008C0004361436A436843F0806343F400534360E9
:1008D000137823B1436843F01003436003E0436897
:1008E00023F010034360737823B1636843F020035F
:1008F000636003E0636823F0200363601E4B23F012
:100900000703AB601D4B23F00703EB6010232B8420
:100910001B4A22F007026A601A4A22F007022A6183
:10092000AB84194BEB612846184B98472846184B67
:100930009847236843F008032360236843F00403C7
:100940002360236843F08003236043F6F443A362EB
:10095000727933791B0443EA0263B2781343F27865
:1009600043EA0223C4F88830F279B37943EA0223D8
:10097000C4F88C3070BD00BFF8990020F8A10020A9
:10098000D83A0020583A0020B89900209907400032
:100990004D0740002DE9F04F85B004469346019382
:1009A000438CADF80E30C2680091002900F09980A8
:1009B00002EBC30500210198016052F8333013F0B7
:1009C000010F00F090808A4688460F464F4E6B68B4
:1009D00013F4804F19D0638CBDF80E209A4200F0BA
:1009E000888004F12207E26802EBC30552F8331055
:1009F00021F0010142F833103846218CB047638C56
:100A0000BDF80E209A42EED173E00DF10E00218C5C
:100A1000B047BAF1000F51D0628CBDF80E309A4247
:100A200013D104F12206394D628CE36853F8321079
:100A300021F0010143F832103046218CA847628C26
:100A4000BDF80E309A42EFD14FE007F180035B45CD
:100A500086BFC7EB0B091FFA89F94FF08009296897
:100A6000404621F003014A46294B9847C8444F4469
:100A70006B6813F4004F28D0C3F30B030198036095
:100A8000638CBDF80E209A4211D004F122061F4D4E
:100A9000E26852F8331021F0010142F83310304679
:100AA000218CA847638CBDF80E209A42F0D1019AA0
:100AB0001068874234BF0420002024E02B6823F014
:100AC00001032B60BDF80E306384BDF80E20E3688F
:100AD00003EBC20553F8323013F0010F7FF477AF08
:100AE00005E005200FE003200DE003200BE00320CC
:100AF00009E00DF10E00218CB047DDF800804FF0C9
:100B0000010A002788E705B0BDE8F08F3D074000E7
:100B1000A1AC40002DE9F04704461546984606680A
:100B200040F2EE52954236D8C78CF800D4F810C087
:100B30000CEB0009228DFB431A44A38C92FBF3FAC1
:100B400003FB1A231BB948444368002B26DBD4F867
:100B50001CA029B125B15CF837002A46114B9847F3
:100B60004AF82780E28CA38C013B9A42C5F30C051E
:100B700008BF45F0804545F40045C9F8045004F12C
:100B80002600A18C084B9847336843F40073336008
:100B90000020BDE8F0870520BDE8F0870220BDE811
:100BA000F08700BFA1AC40003D0740002DE9F041B7
:100BB00084B0044607687B6A03933B6A02937B69AF
:100BC0000193396B039A454B0B4322EA03030393CA
:100BD000039B13F0020F03D1029B13F0020F10D0FE
:100BE000029B03F00403002B14BF06200220029B8B
:100BF00013F0010F18BF40F001003862636903B1C0
:100C00009847039B13F0800F03D1019B13F0200F33
:100C100061D0019B13F0040F14D0238DE18CC91A0D
:100C2000A28C91FBF2F502FB151242F00405E66975
:100C300006EB830620462A4B98473B6843F008039F
:100C40003B6000E02025019B13F0020F18BF45F028
:100C50000205019B13F0400F18BF45F040057D6170
:100C6000E28C238D9A421ED004F128081D4F238D5B
:100C7000E26902EB8306216901EBC301496800299F
:100C800011DA52F823300BB1284698474046A18C20
:100C9000B847E28C238DD21AA38C92FBF3F103FBAD
:100CA0001123002BE3D1019B13F0040F03D0336811
:100CB0000BB128469847238DE28CD2431A44A38C6B
:100CC00092FBF3F103FB112394F82A108B4202DB11
:100CD000A36903B1984704B0BDE8F081000303F8AD
:100CE0004D0740003D074000174B1A6B22F0700281
:100CF000104318639B6E13F0080F09D14FF4006383
:100D0000114901E0013B19D08A6E12F0080FF9D0A9
:100D10000D4B1A6B22F0030242F002021A63986E26
:100D200010F008000CD14FF40063074901E0013BCB
:100D300008D08A6E12F0080FF9D070470120704772
:100D4000002070470120704700040E4038B111495F
:100D50000B6A114A1A40114B13430B6270470D4A3C
:100D6000136A23F45C1323F0030343F45C1343F08E
:100D70000103090289B20B431362936E13F0010F52
:100D8000FBD0044A136A43F09B7343F4803313622D
:100D9000704700BF00040E40FCFFC8FE0200370190
:100DA000024B986E00F48030704700BF00040E4084
:100DB0004FF00052014B9A62704700BF00040E4092
:100DC000024B986E00F00200704700BF00040E4016
:100DD0002F2820D81F280DD8124B9A690123834051
:100DE0001A40934219D0012303FA00F00D4B186109
:100DF000002070470B4BD3F8082120380123834093
:100E00001A4093420BD0012303FA00F0054BC3F8BC
:100E1000000100207047012070470020704700202B
:100E2000704700BF00040E4008B51320014B9847DF
:100E300008BD00BFD10D4000436823F47023436018
:100E40004368090401F470210B434360704700BFFD
:100E5000436823F07F434360436843EA0161416094
:100E6000704700BF10B443F6992301E0013B12D054
:100E7000046914F0010FF9D08368094C23604068BD
:100E800010F0020F1CBFC3F303431370044B1B6825
:100E90000B80002000E001205DF8044B704700BF8C
:100EA00078A2002030B443F6992401E0013C11D02F
:100EB000056915F0020FF9D0446814F0020F06D04E
:100EC000120402F4702211430BB141F08071C16031
:100ED000002000E0012030BC704700BF32B100EBC1
:100EE0008100036B43F001030363704700EB810053
:100EF000036B23F001030363704700BF32B100EBC3
:100F00008100036B43F002030363704700EB810031
:100F1000036B23F002030363704700BF042A0AD166
:100F200000EB8100036B23F008030363036B43F0C2
:100F300004030363704752B900EB8100036B23F095
:100F400008030363036B23F0040303637047082A59
:100F500005D100EB8100036B43F008030363704786
:100F600000EB81010B6B23F0F0030B630B6B1A4357
:100F70000A637047431E1944B1FBF0F0431EFE2B79
:100F800094BF80B24FF6FF7000B2704700EB810152
:100F90000B6B23F47F430B630B6B43EA02220A6360
:100FA000704700BF00EB8101086B80B20863086BDB
:100FB00040EA036343EA02420A63704710B48901BE
:100FC0004318022444504FF0FF319962196A5A6065
:100FD0005DF8044B704700BF8901052343507047FB
:100FE00000EB8111CA61704700EB81114A627047C2
:100FF000F0B486B0022401940824029420240394BF
:10100000802404940A9CE40B05944C0CB0EB510F23
:101010001AD8A04220D201AE012456F8045FB1FBD9
:10102000F5F52F0C854211D3874216D90134052CD2
:10103000F3D10DE006A800EB840151F8141C1160F7
:1010400043B11C6001200BE0002009E0002007E014
:10105000002005E0012003E00024002AEAD1EFE7A8
:1010600006B0F0BC704700BFFEE700BF10B5194BDB
:10107000194A9A4203D0194B164A9A4204D3184B84
:10108000184A9A420FD31AE0174B184CE41A24F06E
:101090000304043400230F480F495A581A500433EC
:1010A000A342FAD1EBE7124B1249C91A21F003010E
:1010B0001A1D1144002243F8042F8B42FBD10E4B22
:1010C0000E4A22F07F029A600D4B98470D4B9847CD
:1010D000FEE700BF00000020541C4100343A00200D
:1010E0001CC40020383A002004000020373A0020B9
:1010F000343A002017C4002000ED00E0000040005A
:1011000029AC4000E99B40003C4B1B6B03F0030300
:10111000012B0FD013B1022B29D057E0384B5B695C
:1011200013F0800F14BF4FF400424FF4FA42354BD6
:101130001A604BE0314B1B6A13F0807F03D0324AB8
:10114000304B1A6042E0314A2E4B1A602B4B1B6A1F
:1011500003F07003102B02D0202B04D036E02C4A71
:10116000284B1A6032E0284A264B1A602EE0234BA7
:101170001B6A13F0807F03D0234A224B1A6012E0CF
:10118000224A204B1A601D4B1B6A03F07003102B80
:1011900002D0202B04D006E01D4A1A4B1A6002E050
:1011A000194A184B1A60154B1B6B03F00303022BF3
:1011B0000CD1124B986A996A124BC0F30A401A6814
:1011C00000FB0222C9B2B2FBF1F21A600B4B1B6B9F
:1011D00003F07003702B07D10A4B1A680D49A1FB6D
:1011E000020252081A607047044B196B054BC1F399
:1011F00002111A68CA401A60704700BF00040E400E
:1012000010180E4000000020001BB70000093D0030
:1012100000127A00ABAAAAAA144B984203D8002263
:10122000134B1A607047134B984204D84FF48072E6
:101230000F4B1A607047104B984204D84FF400725D
:101240000B4B1A6070470D4B984204D84FF4407214
:10125000074B1A6070470A4B984294BF4FF4806264
:101260004FF4A062024B1A60704700BFFF2C31019F
:10127000000A0E40FF596202FF869303FFB3C404C5
:10128000FFE0F505054B1B6813B9054A034B1A60CF
:10129000024A136818441060184670477CA2002068
:1012A00020F400204FF0FF30704700BF4FF4005390
:1012B0004B600020704700BF01207047002070473E
:1012C000030A43EA002080B2704700BF030A43EAE2
:1012D000002080B2704700BF030643EA106300F4A9
:1012E0007F4243EA022300F47F0043EA1020704764
:1012F00008B5014B984708BDD9124000037B8B42CB
:1013000003D00173002343734383704730B4038BCE
:101310009C1C1444442C00D9FEE744695D1C0583E1
:10132000234483F8F0104169038B5C1C04830B4455
:1013300083F8F02030BC704710B4038B432B00D9E6
:10134000FEE742695C1C0483134483F8F0105DF8E7
:10135000044B704710B4038B9A1C442A00D9FEE753
:1013600042695C1C048313440A0A83F8F020426932
:10137000038B5C1C0483134483F8F0105DF8044B6A
:10138000704700BF10B4038B1A1D442A00D9FEE732
:1013900042695C1C048313440A0E83F8F0204269FE
:1013A000038B5C1C04831344C1F3074283F8F020D1
:1013B0004269038B5C1C04831344C1F3072283F846
:1013C000F0204269038B5C1C0483134483F8F01003
:1013D0005DF8044B704700BF10B4034600B9FEE748
:1013E000416901B9FEE7028B432A00D9FEE7501C90
:1013F00018830A44FF2182F8F010002006E0FEE77F
:101400005969541C1C830A4482F8F0001A8B432A41
:10141000F6D912F0030FF2D15DF8044B704700BF0C
:101420002DE9F0410C461646074600B9FEE701B922
:10143000FEE70B6903B1FEE74B6903B1FEE700204D
:101440004FF49A7102464C4B98472061002800F0F7
:101450008F804389B3F59A7F00D2FEE7637B1BB987
:10146000464B1A6801321A60444B1B68236042687D
:1014700062610123137062695370636997F82A20CF
:101480009A7063690025DD70D4F8148020683C4BA5
:101490009847C8F8040063691D725D7263699D72A4
:1014A000DD7263691D735D739D73DD73082E08D053
:1014B000042E06D0032E07D1237B043BDBB2012B85
:1014C00002D863697A68DA6062690023137453741E
:1014D0009374D3746269137553759375D375626988
:1014E000137653769376D37619466569184697F83E
:1014F0002AE09AB2964586BFFA1892F82B200A463F
:10150000284402770133102BEFD10023194662697A
:101510001A4482F82C100133402BF8D100231946CD
:1015200062691A4482F86C100133802BF8D1626929
:101530000023632182F8EC106FF07D0082F8ED004B
:10154000532082F8EE0082F8EF10238362691A4478
:1015500082F8F0300133442BF8D1204635210122A6
:10156000084B984720463146074B9847002000E03B
:10157000FF2040B2BDE8F081293B4000040000207C
:10158000D91240000D1340003913400010B5044635
:1015900000B9FEE7006900B9FEE7636903B9FEE739
:1015A000024B984700232361636110BDAD3A4000B0
:1015B00070B582B00546446A204604211F4B984707
:1015C0002846214603221E4B98470646D8B9204696
:1015D000392102221B4B98472046298D1A4B9847E8
:1015E00020461A4B9847218BF031206989B2184B5D
:1015F0009847606821690095164A4323164DA8470D
:101600002046164B9847637B0133DBB26373092B8B
:1016100006D8C3EB431203EB8203DB009BB201E06D
:1016200042F2107303F2F3130D4A82FB0312DB172D
:10163000C3EB62136383304602B070BDFD124000FD
:10164000211440000D13400055134000D9134000F1
:10165000993C4000FC0B4100D56F40008D154000C7
:10166000D34D6210F0B583B00546446A002363622F
:1016700020460621274B9847284621460122264B23
:101680009847064600282CD1204639210222234FB4
:10169000B8472046298D224B9847204637210422FF
:1016A000B847204601211F4FB84720460321B847BD
:1016B00020461C21B84720460621B84720461A4B31
:1016C0009847218BF031206989B2184B98476068A0
:1016D00021690095164A4323164DA8472046164B0C
:1016E0009847637B0133DBB26373052B9DBF4FF4D7
:1016F0007A7202FA03F39BB24EF6602303F2F313FD
:101700000E4A82FB0312DB17C3EB6213638330467E
:1017100003B0F0BDFD124000211440000D13400045
:101720005513400039134000D9134000993C400044
:10173000FC0B4100D56F40008D154000D34D621069
:101740002DE9F04383B00546446A20460121334B1E
:101750009847284621460322314B984706460028E1
:1017600042D12046392102222E4FB8472046298DEA
:101770002D4B9847204632210422B847606ADFF893
:10178000C890C84701462046DFF8C080C0472046C1
:1017900036210422B847206AC84701462046C04780
:1017A000204637210422B847204601211F4FB84761
:1017B00020460321B84720461C21B8472046062171
:1017C000B84720461A4B9847218BF031206989B2DF
:1017D000184B9847606821690095174A4323174DB5
:1017E000A8472046164B9847637B0133DBB26373EF
:1017F000052B9DBF4FF47A7202FA03F39BB24EF6AB
:10180000602303F2F3130F4A82FB0312DB17C3EBCF
:1018100062136383304603B0BDE8F083FD124000DD
:10182000211440000D1340005513400039134000AF
:10183000D9134000993C4000FC0B4100D56F40009B
:101840008D154000D34D6210F11240008513400009
:10185000F0B583B00546446A20460321264B9847DD
:10186000284621460322254B98470646002827D1C3
:10187000204639210222224FB84720464FF41071EA
:10188000204B9847204632210422B847606A1E4BFD
:101890009847014620461D4B984720461C4B9847C9
:1018A000218BF031206989B21A4B98476068216911
:1018B0000095194A4323194DA8472046184B9847CD
:1018C000637B0133DBB26373092B06D8C3EB43128E
:1018D00003EB8203DB009BB201E042F2107303F2E0
:1018E000F313104A82FB0312DB17C3EB621363830B
:1018F000304603B0F0BD00BFFD124000211440008F
:101900000D13400055134000F112400085134000B4
:10191000D9134000993C4000FC0B4100D56F4000BA
:101920008D154000D34D621038B50546446A2046F7
:101930000821074B9847284604F124010022054B53
:101940009847637B013363730123638338BD00BF12
:10195000FD1240005174400030B583B0054600B917
:10196000FEE7446A04B9FEE7636BB3F1FF3F0FD0B3
:101970001E332B4AA2FB031252094FF6FF739A4201
:1019800038BF13469BB20BB1A38301E00123A383AD
:10199000A36BB3F1FF3F0FD01E33214AA2FB03120A
:1019A00052094FF6FF739A4238BF13469BB20BB1F0
:1019B000E38301E00123E383A37B13B1A36A0193D3
:1019C0000EE094F8243013F0800F02D1FF2301932E
:1019D00006E0BF2B8CBF6FF07F434FF6FF73019380
:1019E000E36A00932BB9636A019A134043F0807352
:1019F0000093284604F124010A4B9847284601A980
:101A0000094B984728466946084B98472846084B93
:101A1000984720460A21074B984703B030BD00BFC6
:101A2000898888886D384000613940005539400008
:101A300079394000FD1240002DE9F04F87B0814612
:101A40009046D0F824A05368DAF8082002B1FEE7E7
:101A5000B8F80A202B2A40F2E4811A78022A40F0D2
:101A6000E08190F82A00A8B199F82B101A7F9142D2
:101A700040F0D7814A461946013859FA80F007E00C
:101A800092F82C504C7F01320131A54240F0C981BF
:101A90008242F5D158687B4B9847DAF8003098427B
:101AA00040F0BF81784900220B4643F8042B4A607E
:101AB0009A80B8F80A302B2B40F2B381D8F8043062
:101AC000CAF80830B8F80840B8F1000F0ED1A8E104
:101AD000002100914FF06C094FF02C0B0FE0002219
:101AE00000924FF06C094FF02C0B08E0002300939C
:101AF0004FF0F00BCDF808A0CDF80C90A146B8F847
:101B00000A309B45C0F094814646C3EB0B0B1FFA8D
:101B10008BFBC3EB09091FFA89F93668002E00F028
:101B20007E8173895B45F0D983E1D94540F2D98044
:101B30000BF10207BFB20BF101007189884203DA91
:101B400001990B445B7805E0336813B15B681B783F
:101B500000E000233B2A4FD8DFE802F01E234E2787
:101B60004E4E2B4E4E4E4E4E4E4E4E4E4E4E4E4EB8
:101B70004E4E4E4E4E4E4E4E4E4E4E4E4E4E4E4E85
:101B80004E4E4E4E4E4E4E4E4E4E4E4E4E4E4E368D
:101B90003A3E424E4E4E464A0BF1010B1FFA8BFB6A
:101BA00086E0042B00F04E81FEE7032B00F24D810E
:101BB000FEE713F0030F00D0FEE7082B34BF1D46ED
:101BC0000825AB421CD2FEE7042B00F04181FEE762
:101BD000012B00F04081FEE7012B00F03F81FEE782
:101BE000042B00F03E81FEE7042B00F03D81FEE770
:101BF000042B00F03C81FEE74FF0FF34002500E0AD
:101C000008243B441FFA83FB002D51D00023059389
:101C1000092C2CD81C490B5D2BB103E0FEE71A4AB6
:101C2000135D2BB1FEE704F1FF3A184B03EB8A0A70
:101C3000032D304605A994BF2A4604223B46DFF80F
:101C400054C0E047042D13D915F0030F00D0FEE770
:101C500001230D49635405980D4A90474AF8040F33
:101C6000043DEDB20437BFB20134092CD7D9D5E712
:101C7000042D04D10598034B984705900FE0012DE2
:101C80000AD0FEE7F11240002CB7002038B7002040
:101C9000D9124000313E40009DF8143005930123D5
:101CA000DFF804C20CF80430059B7E4941F824306B
:101CB00073895B450AD8C3EB0B0B1FFA8BFBC3EB95
:101CC00009091FFA89F93668726801924EB15B46BC
:101CD000DDF804C01CF80B20FF2A02D0D9453FF6DE
:101CE00027AF714B1B786BB16E4B1B6800216E4A9E
:101CF0001170012B00F0C380022B3FF4E9AE032BDF
:101D000000F0BB80009900297FF4E9AEBCE0654B90
:101D10001B79052B45D19AF80C30012B39D1D9F814
:101D200024400023A362E3625F4BDB7813B15D4B79
:101D3000DB6823635C4B1B791BB15A4B1B696363E4
:101D400002E0236B5B086363574B5B791BB1554B18
:101D50005B69A36301E0236BA363A3681B696362F0
:101D6000514B9B793BB14F4B9869504B9847A062C0
:101D70000123A37301E00023A3734B4BDB7923B151
:101D8000484BD869494B9847E0624846484B9847CA
:101D900047E0033BDBB2022B43D84846454B98470C
:101DA0003FE0062B21D19AF80C30DA1ED2B2022A7B
:101DB00001D9012B35D1D9F8245048463E4B9847DC
:101DC0003E4C484621463E4B9847484621463D4BAF
:101DD0009847484621463C4B984728460C213B4BA8
:101DE000984748463A4B98471BE0022B19D19AF87E
:101DF0000C30062B15D10023AAF81A30D9F824404C
:101E0000294B9B786BB1274B9868284B98472062E9
:101E1000A3681B69636248462E4B984701E0DDF8D2
:101E200008A00023CAF8083040462B4B984735E0FD
:101E30004646726801925B4612F80B20FF2A7FF437
:101E400074AE4EE71D46062413E00724042510E077
:101E50001D4603240DE01D4600240AE01D46012412
:101E600007E01D46022404E01D46042401E01D464F
:101E700005243B441FFA83FBC8E6012300934FF07F
:101E8000EC094FF06C0B3AE6DDF808A0DDF80C9099
:101E9000054B5B78002B7FF43AAFC2E707B0BDE893
:101EA000F08F00BF38B700202CB70020D9124000B7
:101EB0002919400059194000B1394000000C410077
:101EC0006D3840005539400061394000FD12400036
:101ED0006516400041174000AD3A400030B583B070
:101EE000054600B9FEE7446A002C34D0237B082B5A
:101EF00031D10A68636A9A422DD120460C21174BD2
:101F00009847284621460422154B9847F0B92046A9
:101F100032210422134B9847606A134B98470146BD
:101F20002046124B98472046114B9847218BF031A1
:101F3000206989B20F4B98476068216900950E4A65
:101F400043230E4DA84720460D4B9847637B013332
:101F500063731423638303B030BD00BFFD124000E0
:101F6000211440000D134000F11240008513400081
:101F7000D9134000993C4000FC0B4100D56F400054
:101F80008D15400070B582B00546446A2046052193
:101F9000204B98472846214603221F4B9847064668
:101FA000E0B92046392102221C4B98472046298D52
:101FB0001B4B984720461B4B9847218BF0312069DB
:101FC00089B2194B984760682169009504F1200295
:101FD0004323164DA8472046154B9847637B013392
:101FE000DBB26373092B06D8C3EB431203EB820306
:101FF0001B019BB201E044F6206303F2F3130D4A88
:1020000082FB0312DB17C3EB62136383304602B01B
:1020100070BD00BFFD124000211440000D134000B0
:1020200055134000D9134000993C4000D56F400043
:102030008D154000D34D621070B5154B1C6834B33C
:10204000144E154D636AFBB1DA8B511ED983012AF8
:102050000AD1636A1B7B03F0FB02012A01D00A2B21
:1020600012D12046A8470FE0626A938B591E9183D4
:10207000012B09D1636A1B7B03F0FB02012A01D00B
:102080000A2B01D12046B0472468002CDAD170BD5C
:1020900084C30020851F4000B1154000F0B583B017
:1020A0000546446A20460021274B984700232362B7
:1020B0006362A362E362A3636363236328462146EA
:1020C0000722224B9847064698B92046204B98474E
:1020D000218BF031206989B21E4B984760682169D5
:1020E000009504F1200243231B4FB84720461B4BA9
:1020F0009847637B0133DBB26373092B06D8C3EBCC
:10210000431203EB8203DB009BB201E042F2107347
:1021100003F2F313124A82FB0312DB17C3EB6213C1
:10212000638328460F4B98470F4C284621460F4B98
:102130009847284621460E4B9847284621460D4B86
:102140009847304603B0F0BDFD1240002114400016
:10215000D9134000993C4000D56F40008D154000D8
:10216000D34D6210B1394000000C41006D38400081
:102170005539400061394000F8B52B4B1C68002CE4
:1021800051D02A4D2A4F2B4E636A002B48D05A8BD0
:10219000012A02D9013A5A8342E0012A40D10022A1
:1021A0005A83626A137B0C2B01D0062B02D1204686
:1021B000A84735E0012B0BD1537B052B03D82046D4
:1021C0001D4B98472CE02046B0472046A84727E003
:1021D000082B07D1537B012B204694BF174B184B7C
:1021E00098471DE0052B03D12046164B984717E072
:1021F000042B0BD1537B082B03D82046124B984756
:102200000EE02046B0472046A84709E0032B07D13F
:10221000537B012B02D82046B84701E02046A8474F
:102220002468002CB0D1F8BD84C30020651640009E
:10223000511840009D2040004117400029194000DE
:1022400059194000851F4000B115400010B500B974
:10225000FEE7446A90F8312022F0080280F831202D
:1022600064B1606818B1064B984700236360A368A7
:1022700003B1FEE720460021024B984710BD00BF86
:1022800055714000FD12400070B5054600B9FEE7EB
:10229000446A90F8313023F0080280F8312013F0BE
:1022A000200F44D0038DB3F5107F42D33CB93C20BE
:1022B000234B9847044600283DD0686209E06068D7
:1022C00008B1204B9847236903B1FEE7A36803B127
:1022D000FEE7204600213C221B4B98471B4B9847AA
:1022E000606050B3037A43F020030372184E6068B5
:1022F00031464422174B9847606831464322164BBB
:102300009847606815492A46154B98472846154B4B
:10231000984720B12846144B9847FF200EE095F8C7
:10232000313043F0080385F83130002006E0F22018
:1023300004E0FF2002E0FF2000E0FF2040B270BD7B
:10234000C536400055714000D5AD40009171400048
:10235000000C4100216F4000ED704000391A400030
:102360004D714000651640004D22400008B5044BF9
:102370009847044B9847044B9847044B984708BD2F
:10238000F1344000B5374000693840001D3440004A
:102390002DE9F04385B08046894615460120242169
:1023A0000022244B98470646002840D04389232B1F
:1023B00000D8FEE7D8F80470446884F8009065708F
:1023C000002525716571A571E571D0F804C0D8F8B4
:1023D0000430D3F800E058689968D3F80C80CCF842
:1023E00008E0CCF80C00CCF81010CCF81480D3F82E
:1023F00010E058699969CCF818E0CCF81C00CCF8CA
:102400002010A570E570204671890B4B98476080BD
:10241000FB6804AA42F8043D00950123019330466D
:102420002946FF23054CA0473046054B984705B089
:10243000BDE8F083293B4000E9264000892A40009E
:10244000AD3A40002DE9F04385B004468946456821
:1024500028884F4B9847C0F3032087007E42B6B2CE
:10246000204631B24B4B9847002840F087802389A3
:10247000032B40F2838063681B78082B7AD1464B8C
:10248000D3F8008040464946444B984720B908F0AD
:10249000F008B8F1E00F03D12046414B984774E0B3
:1024A0002389072B6AD920463E4B984718B120460E
:1024B0003B4B984769E0BFB220462421354B9847F3
:1024C00028B320463946334B984700B1FEE7022037
:1024D00021890022344B98478046002852D04289F7
:1024E00007F108039A4200D2FEE721462F4B984796
:1024F00000B1FEE7D8F80450404631B2254B98476A
:1025000000B1FEE72046264B9847444606E02046A9
:102510006FF023011F4B984700B1FEE763681E4A26
:102520001268EA60224A12682A6100221A705A88E8
:102530004FF6F6718A428CBF093208325A80FF2367
:102540002B720023AB72EB7228461421194B98476B
:102550006881204639460F4B984700B1FEE70022BC
:10256000009201230193CDF8089020460A49FF23E9
:10257000114DA84720460A4B984706E02046084BD5
:10258000984702E02046064B984705B0BDE8F08327
:10259000CD124000393A400068B70020D12A4000EF
:1025A000AD3A4000F9264000293B40008D3D4000F7
:1025B00060B70020E92640008129400008B50A469E
:1025C0000321014B984708BD9123400008B50A46F6
:1025D0000B21014B984708BD9123400070B483B094
:1025E0000023ADF8063010F0010606D0994204DD54
:1025F00003788DF8073001390130012910DD0446D8
:102600000B46002234F8025B2A44023B012BF9DC22
:1026100002394B085C1C00EB4400A1EB430100E0D5
:1026200000220029C4BF03788DF80630BDF80600EB
:10263000024490B200EB124290B200EB124026B17D
:1026400003029BB2C0F30720184380B203B070BCF2
:10265000704700BF2DE9F0478A46914698460446E8
:10266000F8B1002635461E4F60686189B847284496
:1026700083B203EB1045638913F0010F07D0C6F155
:102680000106F6B22B029BB2C5F307251D43246851
:10269000002CE9D136B12B029BB2C5F307251D43AF
:1026A00000E00025DAF80020D9F8003091B201EB03
:1026B000124212FA83F202EB13431D444046094CC6
:1026C000A0470544BDF82000A047284483B203EB8F
:1026D000104398B200EB1343D84380B2BDE8F087B3
:1026E000DD254000C112400008B5024B9847C043A9
:1026F00080B208BDDD254000F8B50446F8B10026DB
:102700003546114F60686189B847284485B205EBAA
:102710001045638913F0010F07D0C6F10106F6B228
:102720002B029BB2C5F307251D432468002CE9D179
:1027300036B12B029BB2C5F307251D4300E00025EF
:10274000E84380B2F8BD00BFDD254000104B1B6898
:102750006BB193F8312012F0010F05D0596802686F
:1027600051409A6811420ED01B68002BF1D1094BE1
:102770001B6853B193F8312002F00102002A14BF04
:10278000184600207047184670470020704700BF69
:1027900084C3002088C300202DE9F84F05468846F1
:1027A00047683888664B9847C0F30F30042803D039
:1027B0002846644B9847C0E03888614CA047C0F376
:1027C00003204FEA800A7888A04704466B89534566
:1027D00002D32B89834203D228465A4B9847ACE058
:1027E00038465146584B984718B12846554B98479C
:1027F000A3E028462146554B98473A69544B1A6046
:10280000FA68544B1A6044460126DFF844B1DFF8F9
:102810006C9194F8313013F0010F0CD014F1040FC7
:1028200009D063683BB1DBF8000083420FD021463A
:10283000494B984768B916B1D9F8004000E02468C0
:10284000444508BFD8F8004034B10026E1E72346EC
:1028500000E02346002B6BD17B7A112B67D1BA4461
:10286000BAF80230B3F5884F0FD0002460E041463B
:10287000394B984728B9374B1B6803F0F003E02B1E
:1028800004D128462F4B984757E044461CB92846A8
:102890002C4B984751E0FB8823F0C0039BB233B127
:1028A00028462E4B98470546002846D047682C4BB3
:1028B000C3F800802B4B1F60284641462A4B98479F
:1028C00000282AD17B7A062B09D0112B02D0012BAC
:1028D0000FD109E028464146244B98471DE0284681
:1028E0004146234B984718E028464146214B9847DC
:1028F00013E0174B18684146174B984750B9144BD3
:102900001B6803F0F003E02B04D06F60284602211F
:10291000194B984728460B4B98470023104A1360E1
:10292000104A13600B4A1360094A136005E0002443
:10293000084B18680028A9D099E70020BDE8F88F57
:10294000CD124000AD3A4000E9264000993C4000DD
:1029500068B7002060B70020D12A4000A52D4000B4
:1029600064B700206CB70020A53E4000316D4000E8
:102970007955400045244000BD25400084C3002017
:102980002DE9F04F87B005460091164698469DF810
:102990004490129FC389012B00D0FEE7002A4FD03C
:1029A0001421354B9847002860D16C686B89132B34
:1029B00000D8FEE784F8088084F8099048EA0929DD
:1029C000CDF804903368236199B202911B0C0393F4
:1029D0009DF8400040F48A40DFF8A490C847824642
:1029E00020802889C847834660800023A371E37153
:1029F000DFF89080B8F80000C847A080B8F8003031
:102A00000133A8F80030009A0AB1136813B97B6843
:102A1000E36000E0E360E368039A02990A4412FA73
:102A200083F202EB1343019A134453445B4403447F
:102A30009AB202EB134303EB1343DB43638104E0DD
:102A400043681B6906AE46F8043D3B8D43B12A89B5
:102A50009A4205D9284639463246084B984706E03F
:102A60007B69384629463246984700E0FE2040B24E
:102A700007B0BDE8F08F00BF393A4000393140005F
:102A8000C112400080A20020F0B585B005460F4677
:102A900014461E46C389012B00D0FEE710460A4BA0
:102AA000984768B19DF8282000929DF82C2001924B
:102AB00002902846394622463346044CA04700E09F
:102AC000FC2040B205B0F0BD4D27400081294000F8
:102AD0000346421E12F1030F14D891F8312002F080
:102AE000020202F0FF0092B14A689A420CD0886854
:102AF0005A4002420AD1C0430340984214BF00200A
:102B00000120704701207047002070470020704767
:102B10002DE9F00F82B0036801930DF1030C0DF164
:102B2000070B89464FF00008C24627489CF8015021
:102B30005446A0FB0563DB08661CF6B203EB830773
:102B4000A5EB4705303502AF274407F8085C03F0D2
:102B5000FF050BB13446ECE70CF8015FCEB14245FE
:102B600028DD4B4608F10107C9EB0707C9EB080848
:102B700005E0013CE4B203EB080595421CDADE19DE
:102B800002AD254415F8085C03F8015B002CF0D178
:102B900001E046464B4606F10108B2420EDD03F164
:102BA00001094FF02E041C70DC45BFD100221A70C1
:102BB000084604E0002002E0002000E0002002B00F
:102BC000BDE8F00F704700BFCDCCCCCC08B50249B2
:102BD0001022024B984708BD84A20020112B400010
:102BE00008B50346084A1268824203D11168064AB2
:102BF000116003E001B9FEE702680A60052019468A
:102C0000024B984708BD00BF94A2002049384000FD
:102C10002DE9F04705460F46814200D1FEE719B184
:102C20000B68834200D0FEE76E6873689A8802BB27
:102C30001B686B6072682B4653F8081FD3F804E0DA
:102C40009C68D8681160C2F804E09460D06019698B
:102C50001161304601211B4B984730461A4B98476B
:102C6000B0F5803F00DBFEE704463046174B98473F
:102C700000E000246E68B6B1DFF84CA0DFF84C909D
:102C80007368D3F800803046D0472318B3F5803FEF
:102C900000DBFEE70444A4B23046C847B8F1000F99
:102CA00001D04646ECE728463946094B9847094B80
:102CB0001B88A34200D2FEE71B1B064A1380204656
:102CC000BDE8F087CD2540000D3D4000AD3A400005
:102CD000E12B400098A200202DE9F84F05468946D7
:102CE0000026DFF86880B2463746D8F8003043B394
:102CF000D5F80CC05446394638465A69624509D160
:102D0000D5F810B09A695A4504D1B3F80CB0AA8826
:102D1000934509D0013430B193F81FB0C27F934579
:102D200098BF184600E018461A6812B119461346B3
:102D3000E3E710B1044B984706444E4501DA012CF5
:102D4000D3DC3046BDE8F88F112C400094A200205F
:102D500010B5044600B9FEE7406908B1034B984737
:102D600006202146024B984710BD00BFAD3A4000F7
:102D70004938400070B5094B186870B10024084EFE
:102D8000C37F23B1013BC3770446006803E00568B5
:102D90002146B04728460028F2D170BD94A20020F9
:102DA000112C40002DE9F04F83B00746466830886B
:102DB000A34B9847C0F30320052840F03C81F088DE
:102DC0009F4CA04701907088A04782463088A0475A
:102DD000834638469B4B984780469B4B1B88034451
:102DE0000A2B0CDD30464146984B9847002800F0EE
:102DF0002281954B1B8843440A2B00F31C81944B82
:102E00001C689CB1F26800256369934207D131695F
:102E1000A3698B4203D1A189B388994204D0236866
:102E200023B125461C46EFE7B4B92C460520894B53
:102E300098478146002840F0498130464146834BFF
:102E40009847804500F3F7800520824B98478146DC
:102E5000002840F03B81EEE0F088794B9847C0F3C2
:102E60000C0088B9E089764B9847C0F30C0058B144
:102E70003268D6F804E0B068F168A260C4F80CE0EB
:102E8000206161613269A2616F4B1A889044A3F896
:102E90000080F38803F020039BB27BB9A37F43F04B
:102EA0000103A377019AC2F30C030AEBC30ACBF325
:102EB000032BCBEB8B3B0AEB8B03A383D7F804806C
:102EC000B8F802005E4EB0478246B8F80000B0473E
:102ED0008146B8F80600B047C0F30C00C600D7F82A
:102EE0000480002388F8003088F8013088F8023028
:102EF00088F80330A8F80460B244C9F30329C9EB89
:102F000089390AEB89091FFA89F9A8F806906268DD
:102F1000002A00F0FE80536899888E42C0F0A0809D
:102F200067D0DA88B24264D84FF0010C1EE04268E4
:102F300091888E420ED2C8F80000002B00F0E68087
:102F4000B3F806A0B24554D892884A4551D31F60C1
:102F5000F8B911E08E424CD0D088B04249D823B1A4
:102F6000DB888B4218BF4FF0000C1346186800280E
:102F7000DDD1002B00F0CC80DA88B8F80410914243
:102F800000D2FEE71F60B8F80430934270D100E031
:102F9000FEE7A37F13F0010F6AD0BCF1000F67D0EA
:102FA00060684668B388002B62D1D8F80030002BE7
:102FB0005BD05B68B8F806109A88914206D057E05B
:102FC0005268D9889388994252D113461A68002AC8
:102FD000F6D1984649E0FEE7464500D1FEE7D8F82D
:102FE000003003B1FEE7B8F80630A28B9A4241D018
:102FF000FEE7154C25883846124B9847281A208042
:103000003846154B984733E0776830465946D047E5
:1030100040463146C8473E68002EF5D12046294635
:103020000E4B9847084C25884046064B9847281A6F
:103030002080404671E03846074B984700206CE0FE
:10304000CD1240000D3D400098A20020D92C400038
:1030500094A2002021384000AD3A4000E12B40000E
:10306000C8F800204FF0010C50E00028B4D1B2E7BE
:10307000002052E01433A38363685F683E682346F0
:1030800053F8082FD3F804E09868D9683A60C7F875
:1030900004E0B860F9601A693A61A08B204B984748
:1030A00078800023BB71FB71BB72FB723846142120
:1030B0001C4B98477881D4F80480002EAED06FF076
:1030C000130BDFF86CA0DFF86C909DE748460021F9
:1030D0002022154B9847032389F81F30134B1A6899
:1030E000C9F80020C3F8009032687568B068F168CC
:1030F000C9F80820C9F80C50C9F81000C9F8141014
:103100003269C9F8182025464C46BDE6676040E79D
:103110003EE767604FF0010C3BE703B0BDE8F08F7E
:10312000C1124000E9264000D5AD400094A2002025
:10313000393A4000313D40002DE9F04F8FB0044650
:1031400009910D920D8D41680391C888694B98478C
:10315000C0F30C02089200F4005080B20B90238957
:10316000143B9BB20493143D06952B46002DB8BF2B
:10317000EB1DC3F3CF030A93049B002B00F0B18037
:10318000DDF828C04FEACC039BB20C93002514262F
:10319000DFF88491DDF820E0CEF30C030B990B43AC
:1031A0000793069B049A934208DADDF81CC04CF49E
:1031B000005CCDF81CC00C99059101E0049A0592C1
:1031C0000220142100224C4B98478346002800F02F
:1031D0008A806389132B00D8FEE74368DDF80CC0B2
:1031E000DCF80020DCF80470DCF80800DCF80C10D7
:1031F0001A605F609860D960DCF810201A61DBF813
:1032000004A063683344636063899E1B66810599EB
:10321000002937D00E466589AE4238BF3546ADB27B
:103220001DB92468002EF6D12CE00620334A9047C1
:10323000074620B95846324B9847FF2056E063684E
:10324000009301950320294602223B46DFF8CCC0BB
:10325000E047804640B9062039462A4B98475846F1
:10326000274B9847FF2041E02046C8477C61264B0A
:103270003B6158464146254B9847761BB6B20EB186
:103280002468C8E70798224EB047AAF806000599B7
:1032900001F1140080B2B047AAF8020000238AF8B6
:1032A0000A308AF80B30504614211A4B9847AAF876
:1032B0000A00099A5369104659460D9A984758468C
:1032C0000F4B98470499059A8B1A9BB20493089B5D
:1032D000DDF828C063449BB20893049929B12E46B7
:1032E00058E7002002E0FF2000E0002040B20FB0CD
:1032F000BDE8F08FCD124000293B4000213840004E
:10330000AD3A400049384000512D4000313D400069
:10331000C1124000E9264000253D4000D53940005B
:10332000F8B506460F46154607201B4B984704463E
:1033300000B9FEE7002303608760C5604660174B55
:103340001D680DB91860F8BD69688E4214D2891BDA
:1033500069600560114B1860F8BD1A4661685368D2
:10336000C91A616013681BB158688142F5D20FE039
:10337000136823601460F8BD711A41602A681AB19D
:1033800053689942EAD201E02A46F1E713462A46F9
:103390005868411A5960EBE721384000A4A2002088
:1033A00008B5094B1B686BB9084B1B6813B9084B70
:1033B0001B683BB10122044B1A60FA200549002228
:1033C000054B984708BD00BF9CA200208CC300207D
:1033D000A0C30020DD3340002133400008B5094B75
:1033E0009847094B1B6813B9084B1B682BB1FA208F
:1033F00007490022074B984708BD0022064B1A6078
:1034000008BD00BF214940008CC30020A0C300209C
:10341000DD334000213340009CA2002010B54FF462
:103420007A700C4900220C4CA04741F288300B49BD
:103430000022A0474EF6602009490022A0474FF421
:10344000FA7008490022A047074B9847074B1860BD
:1034500010BD00BFD134400021334000B1344000E2
:103460009134400071344000D1824000A0A200207D
:1034700008B5044B98474FF4FA7003490022034BF8
:10348000984708BD79214000713440002133400045
:1034900008B5044B98474EF6602003490022034BC1
:1034A000984708BD39204000913440002133400046
:1034B00008B5044B984741F2883003490022034B7A
:1034C000984708BD45734000B134400021334000A7
:1034D00008B5044B98474FF47A7003490022034B18
:1034E000984708BD752D4000D1344000213340007D
:1034F0000B4B23F003030B4A13604FF440621A8016
:10350000002159801971981807490860012183F832
:10351000041CA3F8002CA3F8022C044A1360704783
:1035200073B70020B0A20020ACA20020A8A2002007
:1035300070B40346002852D010F0030F00D0FEE70D
:10354000284A1268904200D204E027490D68A84238
:10355000FAD200E0FEE7A0F1080110F8040C00B96F
:10356000FEE7002003F8040C2048006881423CBFBD
:103570001E4801608A4200D9FEE78D4200D8FEE76E
:1035800033F8080CB0F5406F00D9FEE71418A142DB
:1035900010D0267976B9A5420CD0144D2D68AC42D6
:1035A00004BF124C2160145A23F8084C105A1044DE
:1035B0008C1A448033F8064C101981420FD00579DB
:1035C0006DB90A4D2D68A94204BF0849086033F857
:1035D000081C115333F8083C1344821A5A8070BCFB
:1035E000704700BFB0A20020ACA20020A8A200201B
:1035F000F0B403314FF6FC720A400B2A05D9B2F53C
:10360000406F88BF002055D800E00C222A4B1B6871
:10361000834200D904E0294909688842FAD200E0CF
:10362000FEE7A0F10801C91A89B230F8085CA5F1DB
:103630000804641AA4B2944200D2FEE7A24239D030
:103640005E193779CFB95D5B01F10804224492B26B
:103650001B4C2468B44202D19E18194C26609C1859
:10366000002626719D52618020F8082C995AB1F5E8
:10367000406F1FD00B445A801CE002F11405A54294
:1036800018D801F10804224492B29C180C4D2D6800
:10369000AC423CBF0A4D2C600025257130F8085C17
:1036A0009D52618020F8082C995AB1F5406F1CBFDB
:1036B0005B185A80F0BC7047B0A20020ACA200207A
:1036C000A8A20020F0B4002864D0C31C4FF6FC74FC
:1036D0001C400B2C03D9B4F5406F01D95CE00C24DD
:1036E000314B1968314B1B685B1A9BB2C4F54065BE
:1036F000AB4253DA2746CA181079002846D1C85A77
:103700000838C01A3E46A04240D307F11405A8422B
:1037100013D304F10800184480B20C180025257159
:1037200015880D5263801080012313710B5AB3F575
:10373000406F04D00B44588001E0012313711B4BF0
:103740001B689A4213D113798BB1194B19688A42BD
:103750000DD0154B186813461B8803441C7914B907
:1037600012490B6003E08B42F6D110490B6006F161
:10377000080313440E490968994200D2FEE712F08B
:10378000030F00D0FEE702F108000AE01388AB4205
:10379000B1DB05E0002004E0002002E0002000E0B2
:1037A0000020F0BC704700BFB0A20020A8A20020FB
:1037B000ACA200202DE9F00F154921F00301154EB0
:1037C000DFF854C006F1280A0027B846DFF84CB0ED
:1037D00046F8048B3CF8023B9BB137F80B503CF8A1
:1037E000024CB14656F8040C0B4642461860591973
:1037F000013290B2844202D918460B46F6E749F8E6
:10380000043C02375645E3D1BDE8F00F704700BFD6
:10381000B7A20020F0B40020040C4100180C4100B5
:10382000092800D9FEE7074B53F8203043B1196847
:1038300013F0030F03D1034A42F8201000E0FEE723
:1038400018467047F0B400200B4649B111F0030F41
:1038500000D0FEE7034A52F82010196042F82030E9
:10386000704700BFF0B40020704700BFF8B50546B0
:103870000E460A6843689A4220D0134B186858B124
:10388000124F04686A68944203D1C468B84720465E
:1038900000E0C0680028F4D10D4B1B6873B1002113
:1038A0004BB11A683AB16868824204D10EB13268ED
:1038B00000E00A461A60DB68002BF1D10EB13368D4
:1038C00000E000236B60F8BD8CC30020F949400084
:1038D00094C3002070B5044616461D46064B984713
:1038E0000EB1336800E00023A3600DB12B6800E047
:1038F0000023E36070BD00BF6D384000F8B504469A
:10390000079D05B9FEE700206060A060E06084F8D4
:1039100031006062E061069820620B4E3078471CEF
:10392000377084F83400089820612046074EB0476D
:103930002046A84728B9064B1A6822601C6020461A
:10394000F8BD0020F8BD00BF18B50020D5384000F4
:1039500084C3002009B10B6800E00023C3607047F6
:1039600009B10B6800E0002383607047014B1860C9
:10397000704700BF88C3002010B5044690F831306E
:1039800013F0010F10D143F0010380F83130C36907
:1039900003B1984794F8313003F03003302B03D152
:1039A0002046211D014B984710BD00BF9D7340006C
:1039B00008B590F8313013F0010F06D023F0010361
:1039C00080F83130C36903B1984708BD00B1C161C7
:1039D000704700BF70B4039C03280CD8DFE800F0E8
:1039E0000402070C002000E01420143000E0002046
:1039F000103080B201E0FEE70020C61C26F003066E
:103A00000E44BDF81050AE4213DB00251D602CB1F2
:103A10002044033020F00300586001E0002058608B
:103A200002205873198159811A730122DA811846CC
:103A300000E0002070BC704710B4034600B9FEE7F8
:103A400051B3002905DA4A4292B24089904201D22C
:103A5000FEE78AB2187B5C6808B1032805D1621AB8
:103A600003F1100082420DD218E0013880B2012823
:103A700007D8002914DA5889904213D3641A5C607D
:103A800001E0FEE75A6089B25A890A445A811A89CC
:103A900011441981002006E0002004E0012002E02A
:103AA000012000E001205DF8044B70472DE9F04152
:103AB000014600B9FEE7037B032B05D80024DFF89D
:103AC00064800827164D1FE0FEE7FEE70E680B7BBB
:103AD0004A7B12F0020F05D00B6903B9FEE70846D6
:103AE00098470DE0032B02D10920A84708E0013BCD
:103AF0009BB2012B02D83846A84701E00846C047D0
:103B00000134E4B246B13146CB89002BDDD0013B14
:103B10009BB2CB81002BD9D02046BDE8F08100BFFD
:103B200049384000313540002DE9F0470D46174631
:103B300003280CD8DFE800F00402070C002300E0A3
:103B40001423143300E0002310339EB201E0FEE79B
:103B50000026032F00F28980DFE807F0637B7B02F9
:103B600009204A4B98470446002800F0868003232A
:103B70000373002303608119133121F003014160B5
:103B80000581F21C22F00302C2F50072AA42B4BF02
:103B900013462B4643819BB200F5047619448E42AE
:103BA00000D2FEE7002A00DCFEE70122C281ED1A06
:103BB000002D5BDD82464FF00909DFF8D080032736
:103BC0004846C047034628B92046314B9847002055
:103BD000BDE8F0870773002242730260CAF8000054
:103BE0004FF6FE72954200DDFEE7AAB20281B2F501
:103BF000007F28BF4FF40072428100F11001416044
:103C000011F0030F00D0FEE76089616801448E4225
:103C100000D2FEE70121D981AD1A002D26DD9A469A
:103C2000CEE706F1130020F00300EB1C23F00303A2
:103C3000184480B2174B9847044608B383191333CE
:103C400023F0030343600581458100230360037370
:103C50000CE008200D4B98470446A0B100234360B8
:103C6000058145810360077300E0FEE70123E381DE
:103C7000002363732046BDE8F0870020BDE8F0878D
:103C80000020BDE8F0870020BDE8F0872138400023
:103C9000AD3A4000C536400038B50D46044600B97F
:103CA000FEE7037B032B00D9FEE702898A4227D96E
:103CB0008A1A4FF6FE710AE0ED1AADB28A4200DDB3
:103CC000FEE7238913442381246804B9FEE763894E
:103CD0009D42F1D82046227B52B99D4208D06368AC
:103CE0001B1BE91889B2074B9847044600B9FEE749
:103CF00065812581206808B1034B98470023236024
:103D000038BD00BFF1354000AD3A4000034630B148
:103D100000200130C0B21B68002BFAD17047002090
:103D2000704700BF10B1C2890132C281704700BF25
:103D300010B4034618B111B1006808B911E0FEE7EC
:103D40001A4603460C89108920441081186840B136
:103D50001A460346F6E7FEE7088902441A8119600D
:103D600004E01A8958899042F5D1F5E75DF8044BD3
:103D7000704700BF10B50C46024B98472046024BD7
:103D8000984710BD313D4000253D40002DE9F047EA
:103D90000C46054620B119B102890B899A4201D21D
:103DA000FEE7FEE700263746DFF880A0B1466B89C4
:103DB0006289D81B911B8842A7BF0A461FFA82F866
:103DC000C7EB03031FFA83F868686168384431441D
:103DD0004246D0474744BFB24644B6B26B899F4281
:103DE00000D9FEE79F4204BF2D684F4663899E427B
:103DF00000D9FEE79E4224BF24684E4634B1628952
:103E000023899A4202D1236803B1FEE74DB16A8942
:103E10002B899A4202D12B6803B1FEE7002CC6D150
:103E200001E0002CBDD10020BDE8F087A1AC40002E
:103E30002DE9F84F89461546044600B9FEE701B959
:103E4000FEE722B30027B846DFF854B0BA462BB1DC
:103E500062899A4202D89B1A9BB213E06689F61ACD
:103E6000B6B2AE4228BF2E46616809EB080019447D
:103E70003246D8473744BFB2B0441FFA88F8AD1B6A
:103E8000ADB2534624682DB1002CE0D105E00020EE
:103E9000BDE8F88F3846BDE8F88F3846BDE8F88FA2
:103EA000A1AC40002DE9F843074643685E7A194B00
:103EB0001C6834B30025DFF86080DFF86090217C57
:103EC000B14219D12CB123681BB1D9F8002093421B
:103ED00012D1D4F814C0BCF1000F0DD0A069214656
:103EE0003A464346E04738B18DB1E368EB60094B91
:103EF0001A68E2601C600AE0E16829B125460C46B8
:103F0000DDE70020BDE8F8830020BDE8F88301204C
:103F1000BDE8F8831CB5002060B7002068B700201A
:103F20006FF00900704700BFF0B40F4B18884FF6D0
:103F3000FF764FF4404700250C4CB0421ABF0130C9
:103F400080B2384629460B591B6803E09A8B82429F
:103F5000F3D0DB68002BF9D104311029F3D1024BE7
:103F60001880F0BC704700BF080000202C0C4100F6
:103F7000F8B504460D46037C03B1FEE712B9194BB0
:103F800098470246184B191F03F10C0751F8043FDC
:103F90001B686BB1988B904207D1C3B11E68C6B144
:103FA000CDB12868C8B1864219D0DB68002BF1D1A9
:103FB000B942EBD115B12B6803B12360A2830B4B3F
:103FC0001A68E2601C600A4B9847002008E0F8205D
:103FD00006E0F82004E0F82002E0F82000E0F820F5
:103FE00040B2F8BD293F40002C0C41009CC300208A
:103FF000A133400038B50446037C03B1FEE703203B
:10400000244B98470546002841D063694361A38B40
:10401000838301230374637C4374237A43F0020394
:104020000372A37A8372637A437223680360A38B5B
:10403000FBB1194B1A68A24202D1D2681A6016E08D
:10404000164B1A609AB1D368A3420CD107E0DA6824
:10405000A24201D0134606E0104A136000E0134666
:10406000E268DA6003E0002BF1D10C4A1360002310
:10407000E360022021460A4B98470A4BAB610A4B8A
:104080001A68EA601D60094B9847284638BD002031
:1040900038BD00BF213840009CC3002098C30020D9
:1040A00049384000213F400094C30020A133400024
:1040B000F0B40346426A048DA018D96A1D8F40F2FD
:1040C000EE26B54288BF3546401A451B002D01DB60
:1040D0005C850CE0501A002802DD0020588506E0BF
:1040E0008A1AB2F5803F00D3FEE75A850020F0BC63
:1040F000704700BF10B50446028DC2F57F43FF3301
:10410000994200DDFEE78B189BB2038540F2DC523A
:10411000934284BF13460385074B9847B0F5BB7F96
:1041200008DD94F8203043F0020384F82030204664
:10413000024B984710BD00BFB1404000756740007A
:1041400010B5044648B1406818B1044B98470023A5
:10415000636004202146024B984710BDAD3A4000F1
:104160004938400038B5034630B1044D1C68184644
:10417000A8470CB12346F9E738BD00BF41414000D4
:104180004174704738B505460420084B98470446EB
:1041900050B128686968AA68EB6820606160A26015
:1041A000E3606068024B9847204638BD21384000E4
:1041B000253D400041617047C0F88810704700BF3E
:1041C000C0F88410704700BFC0F89410704700BF5B
:1041D00081617047C0F8901080F83520704700BFAB
:1041E00070B50446037C012B19D90A2B17D0D0F8DF
:1041F000800020B10A4B98470023C4F88030E06F5C
:10420000084EB0470025E5674FF6FF73E386606F01
:10421000B047A06FB0476567A567A4F8725070BD3E
:10422000AD3A4000654140002DE9F04782B0A34B14
:104230001A6801321A60A24B1C68002C00F036810B
:10424000237C33B1012B07D00A2B0CD10AE02B7C45
:1042500003B9FEE7012B00D1FEE70A2B02D0264668
:104260002C4606E0FEE70026DFF88492DFF8848221
:10427000944F022B03D194F84A20062A54D094F884
:104280004A200C2A52D094F8A010B9B1D4F89C302E
:104290000133C4F89C308C4A0A4412F8012C934232
:1042A00046D30023C4F89C3006299CBF013184F812
:1042B000A0102046854B984700253EE0E18E11F482
:1042C000004F04BF0131E186A16F99B3B4F9360004
:1042D000B4F9481088422FDB022B0BD0B4F94410FC
:1042E000B4F9463003EBE10118F8023001FA03F3A8
:1042F000A4F848300023E386B4F85220B4F85C30C8
:104300009A4228BF1A465208A4F85420238FB2EBD1
:10431000430FBCBF5B00A4F85430238FA4F8523085
:104320002046C847002508E0012506E0012504E0F5
:10433000002502E0002500E00025237C062B09D1A2
:104340005E4B1A68236BD31A282B40F20381013588
:10435000EDB2FFE0227A12F0080F2CD0042B01D02E
:10436000072B2BD1554B1A68236BD21AD4F898100F
:1043700001F5242303F6B843A7FB0303B2EB531F55
:1043800004D90135EDB24FF0010A1CE094F8A130D8
:104390004F4800FB0313A7FB0313B2EB531F10D9C5
:1043A00020464C4B984794F8A130013384F8A13053
:1043B0004FF0000A07E04FF0000A04E04FF0000A57
:1043C00001E04FF0000AE06F70B13C4B1A68236BBC
:1043D000D21AB4F9483003EB4303B2EB430F03D3D3
:1043E0003D4B98470023E367237C032B08D1334BD5
:1043F0001A68236BD31A282B0CD90135EDB209E0CA
:10440000092B07D12D4B1A68236BD31AF02B84BFCD
:104410000135EDB2002D2ED02046304B98473EB1ED
:10442000274B1B689C4200D1FEE7E368F36007E07E
:10443000234B1B68A34200D0FEE7DA68204B1A60CA
:10444000D4F894301BB160696FF009019847BAF154
:10445000000F09D0A06D616AA38B0093E38B0193D9
:104460002246231D1E4DA847E568022021461D4B0C
:104470009847344617E0E56894F834300133DBB2EE
:1044800084F8343094F835209A420CD8002384F80C
:104490003430D4F890301BB160692146984710B988
:1044A0002046114B9847002D7FF4D1AE0F4B1C686E
:1044B000002C52D0237C0A2B22D020E090C3002075
:1044C0008CC30020D34D62104C0C41005D6C400049
:1044D000F8240100F56B400065414000E1414000D7
:1044E000616A40004938400075674000A0C3002061
:1044F000116B40003C0C4100237C0A2B05D0FEE7E9
:104500000025DFF86880164F164E236BD8F8002080
:10451000D31AF02B19D92046B8473DB1124B1B686E
:104520009C4200D1FEE7E368EB6007E00E4B1B689E
:10453000A34200D0FEE7DA680B4B1A60D4F80C9067
:1045400002202146B0474C4601E02546E468002C95
:10455000D2D102E04FF0000A35E702B0BDE8F087A3
:10456000E141400049384000A0C3002090C3002032
:10457000034B044A10681A6810441860704700BF63
:104580000C00002090C3002010B504460846064BDE
:10459000984730B1038D23B1283B9BB29C4228BF82
:1045A0001C46204610BD00BF4D27400008B580893D
:1045B000014B984708BD00BFCD124000124B1B684D
:1045C00093B11A7C32B1012A07D00A2A09D107E037
:1045D0001A7C02B9FEE7012A00D1FEE70A2A00D1BF
:1045E000FEE7DB68002BF3D1084B1B6853B11A7C44
:1045F0000A2A04D002E01A7C0A2A00D0FEE7DB680F
:10460000002BF8D1012070478CC30020A0C30020EC
:1046100010B50C4602688A4202D1D368036016E0E6
:104620001F4B1A609AB1D3688B420CD107E0DA684D
:10463000A24201D0134606E0194A136000E0134677
:10464000E268DA6003E0002BF1D1154A1360002321
:10465000E3602046134B9847237C0A2B10D0012B94
:1046600017D094F8203013F0010F09D043F0020363
:1046700084F8203020460C4B9847237C012B08D02F
:10468000636F03B1FEE7A36F03B1FEE7E36F03B10E
:10469000FEE700232374054B984700B9FEE710BDE1
:1046A00098C30020E141400075674000BD454000CF
:1046B00030B583B00446002945D0037C012B72D06D
:1046C000D0F8803023B9028D40F2DC539A423AD0C0
:1046D00094F8203013F0100F00D1FEE7A06D616A4E
:1046E000A38B0093E38B01932246231D4B4DA847D8
:1046F00020464B4B98474B4B1A68A24202D1D268D6
:104700001A6016E0484B1A609AB1D368A3420CD1E4
:1047100007E0DA68A24201D0134606E0424A13607D
:1047200000E01346E268DA6003E0002BF1D13E4A74
:1047300013600A2323743D4B1A68E2601C603C4BF3
:10474000984700235FE0237C072B5BD8DFE803F06A
:10475000042B343D455A5A4DA38BFBB1354B1A6897
:10476000A24202D1D2681A6016E02F4B1A609AB1A9
:10477000D368A3420CD107E0DA68A24201D0134605
:1047800006E0294A136000E01346E268DA6003E0BD
:10479000002BF1D1244A13600023E360022021465C
:1047A000254B984735E025482146254B984703205F
:1047B0002146214B98472CE01A482146204B984728
:1047C000022021461C4B984723E020461D4B98476A
:1047D0000346C0B90523237417E02046194B9847B8
:1047E000034680B9052323740FE02046154B9847F4
:1047F000034640B90923237407E02046124B98472B
:10480000002300E0002358B205E0002CF5D100237E
:10481000F9E70023F7E703B030BD00BF616A40004D
:10482000E14140008CC3002098C30020A0C30020B9
:10483000A13340009CC300204938400094C30020AD
:1048400011464000B56640007567400008B5037C1E
:10485000012B05D090F8203043F0100380F8203071
:104860000121014B984708BDB146400010B51446E0
:1048700042B108461189074B98472046064B984796
:10488000002005E01BB90846044B984700E00020D3
:1048900040B210BDF5404000AD3A40004D484000E8
:1048A0002DE9F8431B4B1C688CB3DFF86C800027A4
:1048B000DFF86890E568D4F880209AB1D4F8886071
:1048C00026B1606921463B46B04703E038462146A1
:1048D0003B46C84710B9C4F8807003E040B210F1FD
:1048E0000A0F11D084B194F8203013F0010F0BD0CF
:1048F00043F0020384F820302046C04794F820306B
:1049000023F0030384F820300DB12C46D2E7BDE834
:10491000F88300BF8CC30020756740006D484000DD
:1049200008B5064B9847064A13780133DBB213707B
:1049300013F0010F01D0034B984708BDA148400078
:1049400020B50020294240002DE9F04F85B00446F3
:104950008A46037C012B00D1FEE70A2B08D12048B0
:104960002146204B9847022021461F4B984733E0B1
:10497000876D466A0368029343680393B0F81C90FE
:10498000B0F81E80D0F89450D0F814B017482146E3
:10499000144B9847A06F08B1154B9847606F08B14A
:1049A000134B9847E06F08B1114B984702202146FE
:1049B0000D4B98471DB158466FF00901A847BAF151
:1049C000000F09D0CDF80090CDF80480384631466C
:1049D00002AA03AB074CA04705B0BDE8F08F00BFAB
:1049E000A0C3002011464000493840008CC300207D
:1049F00065414000616A400008B50121014B9847BC
:104A000008BD00BF49494000F8B5054602203A4BB1
:104A100098470446002835D1384B1B6873B1384A93
:104A2000146801461A6BA21A8A4224BF114618461E
:104A3000DB68002BF6D108B1324B984702202E4B91
:104A400098470446F0B9304B1B68ABB12C4A176845
:104A500006467F215A7C954208D38A4206D81C6BB1
:104A60003C1BB44202D3114626461846DB68002B95
:104A7000F0D108B1234B984702201F4B98470446BA
:104A8000002836D020460021A422204B9847657488
:104A900040F66603A4F86E300025A4F8705040F28A
:104AA000DC53238563856572FF23A3724FF406737D
:104AB00023870623A4F84830A4F84450A4F84630CD
:104AC0004FF6FF73E3860123A4F85230104B98474A
:104AD0006066A065E064A066094B1B68236384F8E8
:104AE00034500C4BC4F888300B4BC4F8983084F821
:104AF000A1502046F8BD00BF21384000A0C30020CF
:104B000090C30020F94940008CC30020D5AD40007F
:104B1000714540006D48400000DD6D0008B5402043
:104B2000014B984708BD00BF094A4000F8B506464A
:104B3000214B1C68A089214B9847C0F30F300528F2
:104B400038D91D4B1B6898891C4B9847000B451F93
:104B5000AD00ADB275B304F11401002340F2DB5790
:104B600040F2DC501C46CA5C012A03D012B3022A70
:104B700003D018E001339BB21AE0CA185278042A15
:104B800018D11A1DAA4215DC0C4494F802C0E27830
:104B900042EA0C22541EA4B2BC4288BF02463287AD
:104BA00004339BB204E00C4462781AB113449BB204
:104BB0009D42D7D8F8BD00BF24B50020CD124000DB
:104BC0002DE9F04705460C46C36898891F4B984766
:104BD00010F0010F04D11E4E1C4FDFF8848019E045
:104BE00020461C4B984700242CE09889B84710F0C9
:104BF000010F09D0D5F80C90B9F80CA00120C047DE
:104C000040EA0A00A9F80C00D4F800902046124BA4
:104C100098474C46B4B129893268E3685868081A45
:104C20001044B4F808C0CCEB00000028DDDA5B6863
:104C3000C91A1144002905DD9B1A99B229816868B7
:104C4000064B98472C60BDE8F08700BFCD124000AE
:104C500028B500206541400041414000993C40009A
:104C6000C11240002DE9F84F04469D4B1B7813F00C
:104C7000100F00F09281B0F85C50416E026E994BBB
:104C80001B68D01A00280FDB9A4204D1964A12689A
:104C90008A1A002A08DB944A1268914215D1934A75
:104CA0001268D289AA4210D9904A1268D28990B269
:104CB000A4F85C2023668C4B1B68636628B194F8CB
:104CC000A03013B1002384F8A030874B1B68E26C3E
:104CD000981A002837DC0020A4F86C00844800886B
:104CE000002840F02F84B4F85C60606E30442944A2
:104CF000884240F02784B4F936100029C0F222849B
:104D0000934240F01F8494F850305A1C9342BCBF29
:104D1000134684F8503094F85030032B09D9B4F876
:104D20005220238F13449BB29A4207D2A4F85230E8
:104D300004E0032B02D120466E4B98476A4EDFF801
:104D4000C4816D4FE0E0012800F19980A16D591AEE
:104D5000002900F3948094F8201011F0040F07D07C
:104D600021F0040184F82010B4F85410A4F8521073
:104D7000002184F84A10B4F94450B4F8460000EB1E
:104D8000E500A4F848009A1A92B2A4F86C20B4F88E
:104D90006E000244A4F86E2084F85010E364237C73
:104DA000032B18D9B4F85230B4F854209A4207D9DA
:104DB000228F1A4492B293420DD2A4F852200AE0F4
:104DC000228F02FB02F292FBF3F21A4492B2934258
:104DD00038BFA4F85220DFF82C81474E424F2CE018
:104DE000A56F2B68A367B4F870906868434B984729
:104DF000814500D2FEE7B4F86C3053B1EB68988976
:104E0000B04710F0010F04D0B4F86C30013BA4F8A7
:104E10006C30B4F870906868384B9847C0EB090064
:104E2000A4F870002846364B9847B4F8703023B188
:104E3000A36F13B9636F03B9FEE7A36F9BB1DB6880
:104E40005868C0478146A36F1D89DB689889B047C1
:104E50003B68C3EB090310F0030018BF012028448E
:104E60000344002BBCDDA36F1BB94FF6FF73E38631
:104E700001E00023E386002384F834305EE700235A
:104E8000A4F86C305AE7656F2B686367B4F87090CC
:104E900068681A4B9847814500D2FEE7B4F86C3039
:104EA00053B1EB689889B84710F0010F04D0B4F8FB
:104EB0006C30013BA4F86C30B4F8709068680F4B0C
:104EC0009847C0EB0900A4F8700028460C4B98479F
:104ED000B4F87030C3B1A36FB3B9636FA3B9FEE781
:104EE00034B5002028B5002030B5002024B50020BE
:104EF0002CB50020956B4000CD1240000D3D4000C8
:104F000041414000F1124000636FDBB1D6F80090E0
:104F1000DB685868C0478246636F1D89DB689889E3
:104F2000B847CAEB090910F0030018BF0120284454
:104F3000C0EB0909B9F1000F04DB3268A36DD31A85
:104F4000002BA0DDE36B43B3226C79490968521A48
:104F5000002A22DAB4F84410764A1268D31A41F3D0
:104F6000CC029A1A92B293B2114489B2A4F84410B6
:104F700013F4004F1CBF53429BB2B4F8462042F3D7
:104F80008D00121A13449BB2A4F8463041F3CC01B1
:104F90000B44A4F848300023E363674B18880028CB
:104FA00000F0BC82626A654B1968531A012B38D431
:104FB000551C6D1A281A002833DC1A4660494868C7
:104FC00000B9FEE747F6FE718B4200DDFEE741893E
:104FD000994214DA0189994200DAFEE7CB1A9DB2B0
:104FE000002103E0D21A0581418100684389934280
:104FF000F8DB514209B2534B984730B1FEE75942B2
:1050000009B2504B984700B1FEE7636A4C4A4B49DE
:10501000086815892844C01A1081D2680B60536053
:1050200008E08A1A002A05DA94F8203043F00203D7
:1050300084F82030414B1A68636AD11A0029C0F203
:105040006882501CC01A218D411A002900F3618228
:105050009A4240F079813A4B1D89DB6898893A4B36
:10506000984710F0030018BF01202B189BB2324A5A
:105070001380228D9A423FD2314BDB689889324BA4
:10508000984710F0010F0DD02D4BDD68AE893046EA
:105090002D4B984700F03E002C4B984726F47C5649
:1050A0003043A881264B228D1A81DB689889264BD4
:1050B000984700F0020083B21BB1214B1A89013AD4
:1050C0001A811F4D68682989214B98472E89EB6802
:1050D00098891D4B984710F0030018BF0120331822
:1050E0009BB2154A1380154A12681344218D626AD7
:1050F0000A44934200D0FEE7E36F002B00F0968055
:105100000F4BDB689889104B984710F0010F08D0BF
:10511000104D02E00368E367A847E06F0028F9D16B
:1051200084E0E56FDFF81080DFF81090064E3DE078
:1051300030B5002090C300202CB5002028B50020F9
:1051400040B50020393A4000CD124000C112400065
:10515000993C4000414140008889B04710F0010F60
:105160001FD0974BDB689889B04700F0020083B2EC
:10517000BBB9934FD7F80CA0BAF80CB00120914BF3
:10518000984740EA0B00AAF80C00B7F808A0FB68A3
:105190009889B04710F0030018BF01205044A8F8C8
:1051A00000002F682846884B98473D46002D3CD08C
:1051B000B8F80020D9F80030E9684F68D71B1F44C1
:1051C0002889381A0028C7DA2F464968521A1A4423
:1051D000002A2ADD7A4ACB1A1381D36898897B4B3F
:1051E000984700F0020083B21BB1754B1A89013A4F
:1051F0001A81734E70683189754B9847B6F80880EC
:10520000F3689889714B984710F0030018BF01208C
:1052100008EB00039BB26F4A13806F4A1268134475
:10522000FA685268934200D0FEE7E567694B1B8835
:10523000694A12681A446262228D934200D9FEE7DD
:10524000D31A23852046654B98475D4B5B681A89C6
:1052500022B1634A13600022594B5A60584BDB68F5
:1052600098895A4B984710F0010F04D05D4B1A787B
:1052700042F020021A70DFF86091544EDFF85C8132
:105280004CE0C9F80070B5F808A09889B04710F054
:10529000030018BF0120504407446762278DB5F80A
:1052A00008A0EB689889B04710F0030018BF0120F0
:1052B0005044874200DAFEE7B4F828A02F89EB6853
:1052C0009889B047C7EB0A0710F0030018BF012008
:1052D000381A20852046C04769680B894BB1404B7E
:1052E000186810B1404B984701E03D4B196000230E
:1052F0006B60EB689889B04710F0010F09D0394B0B
:105300001A7842F020021A70237C042B04BF072372
:1053100023742B68E36728462B4B9847E56F25B12C
:10532000EB685F68626A9742ABD094F8203013F064
:10533000010F1ABF23F0010343F0020343F00103FE
:1053400084F82030BDE8F88F2046284B9847E56F59
:105350002DB91B48264B9847E067BDE8F88F1E4BD8
:105360001B6803F1FF3C5F1C0026E9684A689A420B
:1053700016D1134B1A892B899A4240F2E8801048C3
:105380001B4B98470346002800F0E1800EB13060C7
:1053900000E0E06718462946164B9847BDE8F88FAD
:1053A00056BB981A00284DDA0548114B984700283B
:1053B00000F0CD80E06729460E4B9847BDE8F88F96
:1053C00040B50020C112400041414000CD124000D4
:1053D000993C40002CB5002028B50020B140400089
:1053E00038B5002035B50020313D4000FD66400055
:1053F00085414000C14B4000F0684068C0EB0C00A4
:1054000000281FDBB81A00281CDC5248524B984772
:105410000446002800F09B80F3685B684F4A1268DE
:105420003189891A1944002905DDD31A99B23181CD
:1054300070684B4B9847346020462946494B984743
:10544000BDE8F88F2868002860D19B1A002B7EDD0C
:105450008889454B984710F0010F78D13D483E4B65
:1054600098472860002872D0EB685B683B4A126856
:105470002989891A1944002905DDD31A99B229818D
:105480006868374B9847394B1A88344B1B681A4465
:10549000218D636A0B449A4259D92B68DB6898893D
:1054A000314B984710F0010F0DD02B68DE68B7899B
:1054B00038462D4B984700F03E002D4B984727F477
:1054C0007C573843B0812B68626A218D1144234E8A
:1054D00032688A1A1A812B6858681989204B9847B4
:1054E0002B681D89DB6898891F4B984710F00300D3
:1054F00018BF01202B189BB21C4A1380326813443A
:10550000218D626A0A44934221D0FEE72E46054669
:105510002BE72046174B9847BDE8F88F0F4B1A68CA
:10552000636AD11A002905DB0132D31A228D9B1A36
:10553000002B0CDD94F8203043F0020384F8203077
:10554000BDE8F88F002384F85030FFF7F7BBBDE8C3
:10555000F88F00BF40B500208541400028B50020ED
:10556000993C4000C14B4000CD1240002CB50020BA
:10557000C1124000FD6640002DE9F04383B00546AE
:10558000884644688B4F3C6020888B4EB047C0F300
:10559000032004EB8004894B1C603B681888B047EB
:1055A000C0F30320810028464942854B984710B933
:1055B0002B89132B04D82846824B984700F01BBD3B
:1055C000814B18684146814B984728B97E4B1B6830
:1055D00003F0F003E02B04D128467A4B984700F003
:1055E0000ABD2B89009328467949774A0623794CCE
:1055F000A04740B1714B1868774B98472846714BCC
:10560000984700F0F8BC6D4B1B6898896A4B984727
:10561000000BC0EB80308100284609B2684B9847E8
:1056200020B12846674B984700F0E5BC634C2768DB
:105630003888614EB047388027687888B0477880CE
:1056400027687868DFF8B881C0477860634B1860D6
:105650002768B868C047B860614B18602768F88948
:10566000B047F88123689889B047C0B200F03F0284
:105670005C4B1A7010F0030318BF01232A891344EE
:1056800099B2594B1980594B1E68002E42D0337C79
:1056900033B10A2B07D0012B0CD10AE01A7C02B9D6
:1056A000FEE70A2A00D1FEE7012A02D022461C4664
:1056B0000DE0FEE7414BD3F800E0BEF80070444B2C
:1056C000D3F80080404BD3F800C034460022E38B6F
:1056D000BB4218D1B4F81C90BEF80230994512D1E3
:1056E000636843450FD1236863450CD12346E768BF
:1056F000A74200D1FEE752B1D760E6603B4A146092
:10570000A64204D1FEE7E368002BC7D102E0002BDC
:1057100040F0FF80364B1C68002C76D0237C0A2B8F
:1057200004D002E0227C0A2A09D0FEE7234B1B6842
:105730001E88274AD2F800C0234AD2F800E0E28B44
:10574000B2425FD1A78B5A88BA425BD16268624588
:1057500058D12268724555D110F0040F25D110F0B0
:10576000020F12D01D4B1B68626A9A1A13D4208D47
:10577000121A002A0FDC1A4A106800970196194481
:10578000114A134B1B4CA0470FE010F0010F02D041
:10579000194B1B68236341B194F8203043F0020396
:1057A00084F820302046154B98472846054B9847EB
:1057B00000F021BC3CB50020CD12400024B50020F3
:1057C000393A4000AD3A400068B70020D12A400085
:1057D00060B7002055264000AD45400028B50020A8
:1057E00030B5002034B500202CB500208CC300203B
:1057F000A0C30020616A400090C30020756740008C
:10580000F1124000E468002C8CD1834B1B68002B04
:105810007CD0824A1268B2F802C0814AD2F800E015
:105820001E460022B78B674504D13768774507D0FD
:1058300036B12FB1F768002F68D032463E46F1E707
:10584000002E63D022B1F468D460F360724B1E6006
:1058500010F0100F10D0714B1B68724A1068724A1A
:1058600012685C8800941B880193013011446C4AD3
:105870006E4B6F4CA04745E010F0020F42D0707C99
:105880006C4B9847044600283CD0654B1B6803606E
:10589000B38B8383654B1B684360604B1A68138826
:1058A000C38303230374604B1B68591C4162C162AC
:1058B000D289A0F85C20A0F85420013B03667369EC
:1058C0004361B3698361337A23F0730303725A4BE4
:1058D0001A68C2601860594B98472046584B984741
:1058E000208F211D574B9847208720461221564B69
:1058F000984720B120460021544B984702E02046AB
:10590000534B98472846534B984774E3002C00F0BC
:105910005183514B00221A60298919815D603F49EA
:105920000968D9604D4B1A604D4B1A70D4F880202D
:10593000E2B1D4F8886026B1606921460023B047FF
:1059400004E0002021460346464EB04718B9002324
:10595000C4F880300AE040B210F10A0F02D0424B86
:105960001B881BB128463B4B984744E33F4B1C60C8
:105970003F4B1B7813F0040F21D0227C022A05D163
:10598000A36D284A126893420DD063E2264B196832
:10599000636ACB1A00F15E82208D1B1A002B00F384
:1059A000598202B9FEE72E4B1A7842F008021A70AB
:1059B00094F8203023F0010384F820304AE213F0F9
:1059C000020F0BD0237C023BDBB2012B06D994F8EB
:1059D000203043F0020384F820303BE294F820307A
:1059E00013F0100F02D1234B1B682363002384F8AC
:1059F000A1302046124B9847237C023B072B00F234
:105A00002982DFE813F03900AE000F012101A40163
:105A10000F01DD01150200BF94C3002024B5002052
:105A200068B7002030B5002028B5002060B70020FE
:105A3000616A4000094A40008CC30020A133400045
:105A40002D4B400089454000A96540004949400070
:105A500075674000AD3A400040B5002038B50020E1
:105A600035B500206D4840002CB50020A4C30020AF
:105A700034B5002090C30020994B1B7803F012032B
:105A8000122B56D1A36FDB685868964B98470130AC
:105A9000954B1B6898424CD1B4F86E300133A4F892
:105AA0006E30924B1B685A1C6262E262E064904A5C
:105AB0001268D289A4F85C20013B23660423237476
:105AC000208FE1188B4B9847208700EB80035B0009
:105AD000A4F85430B4F85230012B04BF400080B217
