:020000040040BA
:10000000006B00203D0740003907400039074000E1
:100010003907400039074000390740000000000060
:100020000000000000000000000000003907400050
:1000300039074000000000003907400099224000C5
:1000400039074000390740003907400039074000B0
:1000500039074000390740003907400039074000A0
:100060003907400039074000390740003907400090
:100070003907400039074000390740003907400080
:100080003907400039074000390740003907400070
:10009000390740008909400039074000390740000E
:1000A0003907400039074000390740003907400050
:1000B0003907400039074000390740003907400040
:1000C0003907400039074000390740003907400030
:1000D0003907400039074000390740003907400020
:1000E0003907400039074000390740003907400010
:1000F000750940003907400010B5054C237833B925
:10010000044B13B10448AFF300800123237010BDEA
:10011000DC39002000000000A47A400008B5064B3E
:100120001BB106480649AFF300800648036813B1C7
:10013000054B03B1984708BD00000000A47A4000B9
:10014000E0390020A47A40000000000010B50D48FE
:100150000D4B984700203E210C4B98470C4CA04774
:100160000028FCD00B4B98470B4A0C4B9A620C4C66
:10017000A0470028FCD010200A4B98470A4B98470C
:1001800010BD00BF000E2707E9084000C904400069
:100190001D0540002D054000013F132000040E40C6
:1001A0003D05400065044000D907400010B50446F5
:1001B000104B984780232360636843F0010363601A
:1001C000636843F010036360636823F08003636037
:1001D00020460021084B9847636823F002036360C0
:1001E000636823F00403636020460021034B9847B3
:1001F00010BD00BFA5054000B5054000CD0540007D
:10020000F8B505460C46164618461449144B98474F
:1002100007462846216800221346DFF85CC0E04705
:100220002846216820220F4B984728462168FAB2B9
:100230000D4B98472846216808220C4B98472846C2
:10024000216872080A4B984786F001022846216807
:1002500002F00102074B9847F8BD00BF000E2707C8
:10026000F1064000DD064000090740009906400005
:1002700059064000790640002107400008B5436850
:1002800013F0040F05D009680F290BD8064B9847C7
:1002900008BD0B68032B05D8012202FA03F1C943FC
:1002A000014B984708BD00BFB505400010B5044696
:1002B000236913F4007FFBD020460F21024B98479F
:1002C0004FF08073236010BDB505400003880133F3
:1002D0009BB28B4228BF002303807047F0B40768AD
:1002E000416804693B6823F008033B6000230385F1
:1002F000C384858C65B11A464FF00046E150E5187D
:100300006E600132858C01F2EE5108339542F5D8CA
:1003100004EBC5054FF0404345F8043C24F00304CA
:10032000FC61F0BC704700BF2DE9F04184B0044689
:1003300007687B6A03933B6A02937B690193396B7D
:10034000039A454B0B4322EA03030393039B13F0E9
:10035000020F03D1029B13F0020F10D0029B03F097
:100360000403002B14BF06200220029B13F0010F90
:1003700018BF40F001003862636903B19847039BDE
:1003800013F0800F03D1019B13F0200F61D0019B6C
:1003900013F0040F14D0238DE18CC91AA28C91FBA9
:1003A000F2F502FB151242F00405E66906EB83063E
:1003B00020462A4B98473B6843F008033B6000E027
:1003C0002025019B13F0020F18BF45F00205019B89
:1003D00013F0400F18BF45F040057D61E28C238D7E
:1003E0009A421ED004F128081D4F238DE26902EBCA
:1003F0008306216901EBC3014968002911DA52F82B
:1004000023300BB1284698474046A18CB847E28C70
:10041000238DD21AA38C92FBF3F103FB1123002B43
:10042000E3D1019B13F0040F03D033680BB12846CE
:100430009847238DE28CD2431A44A38C92FBF3F1AC
:1004400003FB112394F82A108B4202DBA36903B14A
:10045000984704B0BDE8F081000303F8DD024000D6
:10046000CD024000174B1A6B22F070021043186344
:100470009B6E13F0080F09D14FF40063114901E09E
:10048000013B19D08A6E12F0080FF9D00D4B1A6B90
:1004900022F0030242F002021A63986E10F0080084
:1004A0000CD14FF40063074901E0013B08D08A6E8C
:1004B00012F0080FF9D070470120704700207047F4
:1004C0000120704700040E4038B111490B6A114AEF
:1004D0001A40114B13430B6270470D4A136A23F401
:1004E0005C1323F0030343F45C1343F0010309029C
:1004F00089B20B431362936E13F0010FFBD0044AD1
:10050000136A43F09B7343F480331362704700BF58
:1005100000040E40FCFFC8FE02003701024B986E3B
:1005200000F48030704700BF00040E404FF00052CE
:10053000014B9A62704700BF00040E40024B986E58
:1005400000F00200704700BF00040E402F2820D8A2
:100550001F280DD8124B9A69012383401A409342F9
:1005600019D0012303FA00F00D4B186100207047E9
:100570000B4BD3F808212038012383401A409342C3
:100580000BD0012303FA00F0054BC3F80001002053
:10059000704701207047002070470020704700BF5F
:1005A00000040E4008B51320014B984708BD00BF5A
:1005B0004D054000436823F47023436043680904F9
:1005C00001F470210B434360704700BF436823F080
:1005D0007F434360436843EA01614160704700BF65
:1005E00010B443F6992301E0013B12D0046914F0E2
:1005F000010FF9D08368094C2360406810F0020FA6
:100600001CBFC3F303431370044B1B680B80002013
:1006100000E001205DF8044B704700BFF83900206E
:1006200030B443F6992401E0013C11D0056915F07E
:10063000020FF9D0446814F0020F06D0120402F43D
:10064000702211430BB141F08071C160002000E0C5
:10065000012030BC704700BF32B100EB8100036B5A
:1006600043F001030363704700EB8100036B23F049
:1006700001030363704700BF32B100EB8100036BDD
:1006800043F002030363704700EB8100036B23F028
:1006900002030363704700BF042A0AD100EB810004
:1006A000036B23F008030363036B43F0040303634A
:1006B000704752B900EB8100036B23F0080303631A
:1006C000036B23F0040303637047082A05D100EB92
:1006D0008100036B43F008030363704700EB810163
:1006E0000B6B23F0F0030B630B6B1A430A63704729
:1006F000431E1944B1FBF0F0431EFE2B94BF80B2A1
:100700004FF6FF7000B2704700EB81010B6B23F4D2
:100710007F430B630B6B43EA02220A63704700BFFF
:1007200000EB8101086B80B20863086B40EA036349
:1007300043EA02420A637047FEE700BF10B5194B57
:10074000194A9A4203D0194B164A9A4204D3184BBD
:10075000184A9A420FD31AE0174B184CE41A24F0A7
:100760000304043400230F480F495A581A50043325
:10077000A342FAD1EBE7124B1249C91A21F0030147
:100780001A1D1144002243F8042F8B42FBD10E4B5B
:100790000E4A22F07F029A600D4B98470D4B984706
:1007A000FEE700BF00000020A47A4000DC390020F2
:1007B000FC3A0020DC39002004000020DF39002052
:1007C000D8390020F73A002000ED00E0000040009A
:1007D0009D3340006D2340003C4B1B6B03F0030333
:1007E000012B0FD013B1022B29D057E0384B5B6996
:1007F00013F0800F14BF4FF400424FF4FA42354B10
:100800001A604BE0314B1B6A13F0807F03D0324AF1
:10081000304B1A6042E0314A2E4B1A602B4B1B6A58
:1008200003F07003102B02D0202B04D036E02C4AAA
:10083000284B1A6032E0284A264B1A602EE0234BE0
:100840001B6A13F0807F03D0234A224B1A6012E008
:10085000224A204B1A601D4B1B6A03F07003102BB9
:1008600002D0202B04D006E01D4A1A4B1A6002E089
:10087000194A184B1A60154B1B6B03F00303022B2C
:100880000CD1124B986A996A124BC0F30A401A684D
:1008900000FB0222C9B2B2FBF1F21A600B4B1B6BD8
:1008A00003F07003702B07D10A4B1A680D49A1FBA6
:1008B000020252081A607047044B196B054BC1F3D2
:1008C00002111A68CA401A60704700BF00040E4047
:1008D00010180E4000000020001BB70000093D006A
:1008E00000127A00ABAAAAAA144B984203D800229D
:1008F000134B1A607047134B984204D84FF4807220
:100900000F4B1A607047104B984204D84FF4007296
:100910000B4B1A6070470D4B984204D84FF440724D
:10092000074B1A6070470A4B984294BF4FF480629D
:100930004FF4A062024B1A60704700BFFF2C3101D8
:10094000000A0E40FF596202FF869303FFB3C404FE
:10095000FFE0F505054B1B6813B9054A034B1A6008
:10096000024A13681844106018467047FC3900208A
:10097000006B002008B50248024B984708BD00BF35
:10098000003A00202903400082B0044B1B6A019307
:10099000034B1A6801321A6002B070470000094028
:1009A0002C3A00200F4B1970012803D10E4A0F4B2F
:1009B0001A607047022803D10D4A0C4B1A60704729
:1009C000032803D10B4A094B1A607047042803D14E
:1009D000094A064B1A607047052802D1074A034BA3
:1009E0001A607047303A00204C0D0020383A002041
:1009F00004000020E0030020D42400206410002024
:100A000000B583B002220B4B1A6300230193019BB4
:100A1000042B05DC019B01330193019B042BF9DDC1
:100A20000222044B5A630120034B984703B05DF840
:100A300004FB00BF00100E403D23400008B539B94B
:100A4000114B4FF480325A634FF400321A6308E0BE
:100A5000012906D10C4B4FF480321A634FF4003257
:100A60005A63094B4FF400725A634FF480625A6321
:100A70001863C043C0B25863FF221A61C3F8A020B4
:100A8000024B984708BD00BF000E0E40010A40000F
:100A900038B510F0800F1CD13F2928BF3F21124BE1
:100AA00018705970C90899703F2883BF4038C0B288
:100AB0000121002140F040000C4CA0470A4B9D78DA
:100AC00045F0B80528460021A04728460121A04747
:100AD00038BD3F2928BF3F21034B002018705970B3
:100AE000C90899700146E5E7343A00203D0A400004
:100AF00030B583B0244BFF225A61C3F8A020234BAA
:100B00001B783F2B07D8204A4FF4803151634FF4B4
:100B10000031116306E01C4A4FF4803111634FF439
:100B200000315163402B04D118B140200121184BF2
:100B30009847154B4FF400721A634FF480621A63A2
:100B4000022203F500731A6300230193019B042B17
:100B500005DC019B01330193019B042BF9DD0A4C59
:100B6000E56B02220B4B5A6301200B4B9847FF2386
:100B70002361C4F8A030054B18785978074B984783
:100B8000E8B203B030BD00BF000E0E40343A002082
:100B90003D0A400000100E403D234000910A4000F5
:100BA00010B50120024CA0470020A04710BD00BF97
:100BB000F10A40002DE9F0470446734B1B7813F00F
:100BC000800F40F0DF803F2B07D8704A4FF4803110
:100BD00051634FF40031116306E06C4A4FF48031E9
:100BE00011634FF400315163402B03D140200121A8
:100BF000674B9847654B4FF400721A634FF480625D
:100C00005A63FF221A61C3F8A0205F4B5B7813F090
:100C1000070500F0A7805F4BDB6B03F002095B4A1E
:100C2000D36BC3F38028D76BC7F34027D66BC6F3CB
:100C30004046D36BC3F3004A574B9847B8F1000FB7
:100C400004D04FF48062514B1A6303E04FF480628A
:100C50004E4B5A6327B14FF400724C4B1A6303E0BA
:100C60004FF40072494B5A6326B14FF40032474BA0
:100C70001A6303E04FF40032444B5A63BAF1000F99
:100C800004D04FF48032414B1A6303E04FF48032BA
:100C90003E4B5A633D4AFF231361C2F8A03004FA69
:100CA00005F31843C0B21063C043C0B250633B4B5E
:100CB0009847354B597808311878C9B2384B98475E
:100CC000354B9847B9F1000F03D00222314B1A631C
:100CD00002E002222F4B5A63B8F1000F04D04FF408
:100CE00080622A4B1A6303E04FF48062274B5A63F9
:100CF00027B14FF40072254B1A6303E04FF40072E2
:100D0000224B5A6326B14FF40032204B1A6303E0A2
:100D10004FF400321D4B5A63BAF1000F04D04FF468
:100D200080321A4B1A6303E04FF48032174B5A6338
:100D3000164AFF231361C2F8A030C5F108052C4103
:100D40000443E4B21463E443E4B25463134B98479E
:100D50000D4B1878013059780839C0B2C9B2104B20
:100D600098470AE0094B1C63E443E4B25C630B4B15
:100D70009847054B1A7801321A70044B00221A6307
:100D8000FF225A63BDE8F087343A0020000E0E407F
:100D90003D0A400000100E40A10B4000010A400037
:100DA000910A40002DE9F04F85B0834692469DF8A8
:100DB00038500133DBB2029301F0070301F0F80968
:100DC00002990091C3F10802914206DAC1F10802CA
:100DD000FF271741FFB2884604E0C3F108085FFA15
:100DE00088F8FF279F40FAB20392584649462A4B9B
:100DF00098470024294EFF430197294FB047FF2D04
:100E000007BF039B184301990840C0B2B84701349B
:100E1000E3B29A45F2D2224F13E008F108085FFAD4
:100E200088F809F108095FFA89F9584649461A4ACB
:100E300090470AF1010600242846B8470134B4421D
:100E4000FAD108F1080300999942E6DA029B43457A
:100E50001ED9C8EB0302FF279740FF43FFB209F1F9
:100E600008015846C9B20C4B98470AF1010A002400
:100E7000DFF828806FEA0709094EC047FF2D0CBF35
:100E8000384300EA0900C0B2B04701345445F4D1F8
:100E900005B0BDE8F08F00BF910A4000A10B4000F3
:100EA000B50B4000F0B583B0264B00251D705D707A
:100EB0009D70FF22244B1A70244A254B1A60254C42
:100EC0004FF400732361C4F8A030234A022111615A
:100ED000C2F8A0104FF480622261C4F8A0204FF441
:100EE00000322261C4F8A0204FF480322261C4F89D
:100EF000A0204FF400462661C4F8A06023630A20B6
:100F0000164FB84766633220B84726630A20B847B1
:100F10003F202946124CA0473F200121A047C02076
:100F20002946A047C0200121A04700952846294610
:100F30007F223F230B4CA047284629460A4B98475F
:100F400003B0F0BD343A0020303A00204C0D0020B0
:100F5000383A0020000E0E4000100E405123400091
:100F60003D0A4000A50D4000910A40002DE9F04FD8
:100F700089B0474B1C68E178049122796579454B2B
:100F8000197803915B780793202802D10631414BF1
:100F90001970904275D35319984274DA821A12F07C
:100FA000FF060CD0631DA01D721E50FA82F00022B5
:100FB00013F8011F0A4492B28342F9D100E00022E3
:100FC000DDF810A00AF10703DB0803FB02F2063587
:100FD00015FA82F292B202923444A4790194002B61
:100FE00045D0013BDBB20233DB000593082500222C
:100FF0000092631EDBB201330693DFF89490264E15
:10100000019BEBB10499C1EB050B009C029A1444BF
:101010001746069B1F4400990F44DFF88080D9F8DB
:101020000030185DAA45BCBF40FA0BF0C0B233785F
:10103000FF2B1CBFC043C0B2C0470134BC42EED13D
:101040003378FF2B0CBF0020FF20144B9847114B27
:10105000597808310398C9B2114B9847009B019AFF
:101060001344DBB200930835059B9D42C8D1039918
:10107000481C019A1044C0B20799094B98470020B8
:1010800002E0012000E0012009B0BDE8F08F00BFC0
:10109000383A0020343A0020303A0020B50B4000A6
:1010A000910A40002DE9F04104460D4B1E7800786E
:1010B000A0B10C4DDFF834801F460A2809D1D8F8BA
:1010C0000030D9787B7819443046C9B2064B98472E
:1010D00000E0A84714F8010F0028EED1BDE8F08128
:1010E000343A00206D0F4000910A4000383A002049
:1010F00038B503220D4B1A700D4C0E4D95F90000BA
:1011000000EB400004EBC0000B4B984795F9003012
:101110005800C21804EBC2021844526904EBC00024
:1011200090470122054B1A7038BD00BFC53A002018
:10113000CC300020C63A002009154000C83A0020F3
:10114000024B1A7842F001021A707047C43A00202C
:1011500010B5584B98470146574B1870002849D096
:10116000564B1B78002B36D0554B1A781144C9B218
:101170001970544B1B7849B25A1E914202DD134636
:101180004F4A13704E4B93F90030002B02DA0022C5
:101190004B4B1A704A4B1B784B4A92F900105AB2CB
:1011A000914227D002EB4201484A02EBC102526948
:1011B0001AB1464800EBC1009047414C94F9000039
:1011C00000EB4000414B03EBC000414B98472278B5
:1011D0003D4B1A700EE03A4B93F9000000EB4002D1
:1011E0003A4B03EBC203DB6823B11046374A02EBEC
:1011F000C00098474FF48020364B984788B1304B59
:1012000093F9000000EB4002304B03EBC2031B6973
:101210003BB110462D4A02EBC00001219847274BF5
:1012200018704FF400202B4B984788B1244B93F94A
:10123000000000EB4002254B03EBC2031B693BB1EE
:101240001046224A02EBC000022198471B4B18703F
:101250004FF480101F4B984788B1194B93F9000049
:1012600000EB4002194B03EBC2031B693BB1104674
:10127000164A02EBC00003219847104B1870164B1A
:101280001B7813F0010F14D00D4B93F9000000EB05
:1012900040020E4B03EBC2039B682BB110460B4A76
:1012A00002EBC000002198470B4B1A7802F0FE02B7
:1012B0001A7010BDF9134000C73A0020C83A002048
:1012C000C63A0020C53A0020C93A0020CC300020A0
:1012D00009154000B1144000C43A00201E4B4FF4E1
:1012E00080025A61C3F8A0205A66C3F890205A655C
:1012F0005A62C3F880201A6F22F480021A675A6F6C
:1013000022F480025A674FF400125A61C3F8A020F9
:101310005A66C3F890205A655A62C3F880201A6F43
:1013200022F400121A675A6F22F400125A67DB6B1C
:1013300003F48003002B14BF03230023064AD26B5F
:1013400012F4001F18BF83F00103044A1370002237
:10135000034B1A80704700BF000E0E403E3A00203B
:10136000403A002010B41F4B1B7813F0FF0F35D10B
:101370001D4B1B8813B1013B1B4A13801B4AD36BC7
:10138000C3F38053D26B12F4001F1CBF83F003031E
:10139000DBB2174A12789A1AD2B212F0010F1DD09E
:1013A0001449088880B210490988F92902D8053102
:1013B0000D4C21800E490B7012F0020F06D00A4B23
:1013C0001A8800EB9212013292B205E0421E064BDF
:1013D0001B88A2EB931292B2064B1A805DF8044B65
:1013E000704700BF423A00203C3A0020000E0E40F9
:1013F0002C310020403A0020064B01221A70064A88
:10140000108880B200F00301118000221A7040F3AE
:1014100087007047423A0020403A00200A4B4FF4C0
:10142000E0125A61C3F8A0205A66C3F890205A65AA
:101430001A62C3F884201A6F22F4E0121A675A6FF6
:1014400022F4E0125A677047000E0E4010B4124B9F
:10145000DA6B124B196802F4E012D2434A4010488A
:1014600001681140C94301600E4C2068104048409B
:1014700020600A40024019685140196019680A4802
:1014800004680A40224302601B683122074B1A603D
:101490005DF8044B704700BF000E0E40503A00202C
:1014A0004C3A0020483A0020443A0020543A0020A8
:1014B000054A01231370054B19680840196841401B
:1014C0001960002313707047583A0020443A0020F6
:1014D00010B582B00020009010217F222F23024CF3
:1014E000A04702B010BD00BFA50D400010B582B0EE
:1014F0000021009108467F221023024CA04702B031
:1015000010BD00BFA50D400070B582B006460D4B62
:101510009847FF24009400200D217F2203460A4DA6
:10152000A84702200321094B984702202146084D75
:10153000A8473068074B984701202146A84702B0CA
:1015400070BD00BFED144000A50D4000910A4000A1
:10155000A5094000A5104000F0B583B005460F4630
:1015600002EB820402EB440202F11104E4B2022015
:1015700021460A4EB0472846094DA847002300934C
:10158000642021461B220A23DFF818C0E0476420AC
:101590002146B0473846A84703B0F0BD910A400045
:1015A000A5104000A50D40002DE9F04182B006468F
:1015B00088461D4602EB820402EB440202F111044C
:1015C000E4B2022021460C4FB84730460B4EB047DC
:1015D000C5F17F020023009328462146D2B20A2398
:1015E000DFF81CC0E04728462146B8474046B047D0
:1015F00002B0BDE8F08100BF910A4000A510400094
:10160000A50D400070B586B018B14FF6FF721D4BA6
:101610001A801D4B18681D4B984784B2194BB3F9BB
:10162000002023B29A4229D00120FF21184B98476D
:1016300000201121174DA8471748184B9847002341
:101640000093552010212A221223154EB047552011
:101650001121A84723B2B3F57A7F02DD114B029323
:1016600005E002A80F21104A23B2104DA84703201D
:10167000FF21074B984702A8084B9847014B1C8055
:1016800006B070BD2E310020CC3A0020513340000E
:10169000A5094000910A4000B4774000A510400021
:1016A000A50D400045525200C4774000B5354000BA
:1016B000F0B587B01D4B1C881D4BB3F9002023B239
:1016C0009A4224D00120FF211A4EB0470020252144
:1016D000194FB84719481A4DA847002300935520C1
:1016E000222125221223DFF864C0E0475520232160
:1016F000B84702A80F21134A23B2134FB84703205B
:10170000FF21B04702A8A847094B1C800CE058B144
:1017100000230093552022212A2214230B4CA0479A
:101720004FF6FF72024B1A8007B0F0BDD83A002086
:1017300030310020A5094000910A4000CC774000DC
:10174000A5104000C4774000B5354000A50D40000D
:1017500010B582B058B10120FF210A4B98475A209A
:101760003721094B98470948094B984707E0002360
:1017700000935A20372139220A23064CA04702B091
:1017800010BD00BFA5094000910A4000E07740006D
:10179000A5104000A50D400010B582B058B1012041
:1017A000FF21094B984700203721084B98470848EC
:1017B000084B984706E000200090372139220A2381
:1017C000054CA04702B010BDA5094000910A400099
:1017D000E4774000A5104000A50D400010B5064B71
:1017E00098470120054CA0470020A0470120044C49
:1017F000A0470020A04710BDD114400005164000AE
:10180000B116400008B50020124B98470020124B3B
:101810009847124B1878124B9847124B1879124B75
:101820009847124B1B78012B07D1114B1878D0F138
:10183000010038BF0020084B98470D4B1B7801333F
:10184000DBB20A2B02D00A4A137008BD0022084BF3
:101850001A7008BD05164000B1164000D53A0020A8
:1018600099174000D83A002051174000593A0020FB
:101870005A3A00200022104B1A70012905D10F4B53
:101880005A6882F001025A6013E0022911D1002245
:101890000B4B1A700B4B1B781BB90122094B1A70AA
:1018A00007E0012B05D10022064B1A700122044BE0
:1018B0001A70034B187870475A3A0020D83A002023
:1018C00032310020593A002008B50C4B1B78012B0F
:1018D00012D10B4B1A6811441960132902DC14222F
:1018E0001A6006E0B1F5827F03DD4FF48272044B8B
:1018F0001A600020034B984708BD00BF593A0020EA
:10190000D83A0020B116400070B582B0144E0025C0
:101910003560144B4FF4B0401866C3F8900058651A
:101920005862C3F880001A6F22F4B0421A675A6FE7
:1019300022F4B0425A6758600B4C20460B4B984734
:101940000095204631462A46094B0A4EB0472046AC
:1019500029468022084B98470123236002B070BDBE
:10196000D03A0020000E0E4000800840AD0140003B
:1019700040420F0001024000DD0640000000000070
:101980002DE9F04182B000248DF80540304D284605
:101990003049314B98472846BDF806102246234669
:1019A0002E4CA0472A46136913F0010FFBD0284C98
:1019B00020460DF106010DF10502294B9847BDF8AF
:1019C00006108F08204600221346244CA047204AC8
:1019D000136913F0010FFBD01D4C20460DF10601D9
:1019E0000DF105021E4B984720461A491D4B98479A
:1019F000BDF806001C4D0009A8471C4C00221C4BDA
:101A0000A0471C4EB04780463846A84700221A4BD4
:101A1000A047B0474146194B9847194FB8470AA30A
:101A2000D3E90023A04704460D464046B847024686
:101A30000B4620462946134CA047B047124B18606E
:101A400002B0BDE8F08100BFEC51B81E85EBF53F58
:101A500000800840D03A00207D024000210640006E
:101A6000E1054000AD02400009274000D5274000B5
:101A70000000B03F092D40000000D03FB12D4000D4
:101A80002D27400071244000CC3A0020AFF30080A5
:101A9000074B1B7853B1074B1B68074A126803EBCF
:101AA00002131869054B1B68C01A70470020704765
:101AB0005B3A00206C3A00205C3A0020603A00203B
:101AC000014B1878704700BF5B3A0020034B1B683E
:101AD000034A126803EB0213986870476C3A0020BF
:101AE0005C3A002058B1064A10600023054A136092
:101AF000054A13600123054A1370054A5360704775
:101B00006C3A00205C3A0020603A00205B3A0020EA
:101B1000D83A0020064B4FF000721A61C3F8A0209B
:101B20005A634FF400021A61C3F8A0205A63704749
:101B3000000E0E40164B1A7842F002011970154B38
:101B40001B6801330A2B02D0124A136006E0002101
:101B5000104B196042F003020D4B1A700E4B1B78AC
:101B60006BB10E4A127852B9013B0B4A1370012235
:101B70000A4B1A704FF40002094B1A637047002297
:101B8000064B1A704FF40002054B5A63704700BFB2
:101B9000643A0020683A0020D43A0020703A0020CD
:101BA000000E0E400022034B1A70034B5A601422A1
:101BB0001A6070475B3A0020D83A00202DE9F041C6
:101BC000504B1B7813F0010F00F09A8023F00103B3
:101BD0004C4A13704C4B1C684C4B1D684C4B5B685B
:101BE000002B29D04A4B18684A4B98470646204696
:101BF0003146494B9847B8B120462946474B98474C
:101C00004749484B984701462046474B984701466D
:101C10003046464B984738B10122454B1A704FF079
:101C20000072444B1A630EE00022414B1A704FF0D1
:101C30000072404B5A6306E000223D4B1A704FF091
:101C400000723C4B5A63304B1E68304B1E603A4B5F
:101C50001B78002B54D0394BD3F80080B8F1000F1B
:101C60000AD1374B1B68374A126803EB0213D86856
:101C7000354B9847264B1860254B1868334B9847CF
:101C800004460D463046324B984706460F46002222
:101C9000304BDFF8D8C0E04702460B4620462946C5
:101CA000DFF8CCC0E04780B13046394600222A4BED
:101CB0002A4EB04702460B4620462946284CA047EC
:101CC00018B108F101021D4B1A601D4B1B681D4A1B
:101CD000126803EB0211086918490968884205D89F
:101CE000013218490A600021144A11601A79154B13
:101CF0001B689A4204D11B4B984705221A4B1A7055
:101D0000BDE8F081643A0020CC3A0020743A00200B
:101D1000D83A00201D2F400001334000B12D400073
:101D20000000F041C52F4000B52D40003D3340007C
:101D3000D53A0020000E0E405B3A0020603A0020A9
:101D40006C3A00205C3A00205133400009274000E3
:101D50002D27400000000840000024406D24400072
:101D6000F52C4000A51B4000D43A0020712440000F
:101D7000B92C400030B40C4B14221A600021596079
:101D800001221A72AC245C721C209872DA72D1257E
:101D90001D735C749874DA741A75FF225A739A73FF
:101DA000D973197430BC7047D83A0020F0B58BB0A5
:101DB000264B1B7A33B1264B93E8030005908DF830
:101DC000181008E0234B93E803000590ADF81810B5
:101DD000090C8DF81A10204805A9002250231F4D28
:101DE000A8471F4F194C637AA27A0092E27A0192B7
:101DF000227B029205A814213A461A4EB0471A488F
:101E000005A901223C23A847637BA27B0092E27BC9
:101E10000192227C029205A814213A46B047134849
:101E200005A902223C23A847637CA27C0092E27CA5
:101E30000192227D029205A814213A46B0470C482F
:101E400005A903223C23A8470BB0F0BDD83A0020D7
:101E5000087840001078400018784000A91540002C
:101E600028784000B53540003C7840004478400078
:101E70004C78400008B5044B98470120FF21034BE4
:101E80009847034B984708BDD1144000A50940006E
:101E9000AD1D4000704700BF01207047704700BF74
:101EA00030B585B018B14FF6FF72134B1A80134B43
:101EB0001868134B984784B20F4BB3F9002023B234
:101EC0009A4214D0B3F57A7F02DD0E4B009305E001
:101ED00068460F210C4A23B20C4DA8470120FF2170
:101EE0000B4B98470B48694600220B4B9847024B17
:101EF0001C8005B030BD00BF5C310020CC3A002012
:101F00005133400045525200C4774000B53540007F
:101F1000A5094000547840005915400030B585B0FF
:101F2000124B1C88124BB3F9002023B29A4210D0F6
:101F300068460F210F4A104DA8470120FF210F4B83
:101F400098470F48694601220E4B9847084B1C8062
:101F500009E040B10A480C4901220A4B98474FF664
:101F6000FF72034B1A8005B030BD00BFD83A002085
:101F70005E310020C4774000B5354000A50940001F
:101F800064784000591540009C77400030B585B01A
:101F900018B14FF6FF720E4B1A800E4B984784B261
:101FA0000B4BB3F9002023B29A420FD068460F21A1
:101FB000094A0A4DA8470120FF21094B98470948C3
:101FC00069460222084B9847014B1C8005B030BD82
:101FD00060310020911A400078784000B53540000B
:101FE000A50940007C7840005915400010B586B026
:101FF00010B1144A144B1A60144B984738B1144B63
:102000009847014601A81422124B984702E000238A
:102010008DF8043001A80C4914220F4B984770B179
:102020000120FF210D4B98470D4801A903225A2397
:102030000C4CA047044801A91422064B984706B04F
:1020400010BD00BF617364007C3A0020C11A4000DB
:10205000CD1A4000313740007D364000A5094000D0
:1020600088784000A915400010B50B4B9847012017
:102070000A4CA0470020A0470120094CA04700209F
:10208000A0470120074CA0470020A0470120064C94
:10209000A0470020A04710BDD1144000A11E400061
:1020A0001D1F40008D1F4000ED1F400010B582B085
:1020B0000020294B98470020284B98470020284BA8
:1020C0009847284B1B795BB10120FF21264B98478D
:1020D00069200321254B98472548264B984707E060
:1020E000002300936920032116220823224CA047D5
:1020F000224B1B785BB10120FF211B4B98475A20D4
:1021000003211A4B98471E481A4B984707E00023B3
:1021100000935A2003210A220823174CA0470020CD
:10212000184B9847184B1B78012B07D1174B187881
:10213000D0F1010038BF0020084B9847134B1B78A3
:102140000133DBB20A2B02D0104A137002E00022E6
:102150000E4B1A7002B010BDA11E40001D1F4000A2
:102160008D1F4000D83A0020A5094000910A400088
:10217000E0774000A5104000A50D4000D53A0020B2
:1021800098784000ED1F4000783A0020793A00200E
:1021900008B50022124B1A70012909D1114B98473A
:1021A00010B1114B984717E01048114B984713E0B6
:1021B000022911D100220F4B1A700F4B1B781BB94B
:1021C00001220D4B1A7007E0012B05D100220A4BAA
:1021D0001A700122074B1A70064B187808BD00BF11
:1021E000793A0020C11A4000A51B4000343100207C
:1021F000E51A400062310020783A002008B50C4B07
:102200001B78012B12D10B4B1A681144196013294A
:1022100002DC14221A6006E0B1F5827F03DD4FF480
:102220008272044B1A600020034B984708BD00BF20
:10223000783A0020D83A00201D1F400038B50E4BD8
:1022400098470120FF210D4B9847002012210C4D8B
:10225000A8470C480C4CA04700201D21A8470B485C
:10226000A04700202921A8470948A0470020342181
:10227000A8470848A04738BDD1144000A509400030
:10228000910A40009C784000A5104000B0784000C2
:10229000C8784000E078400008B51D4B1A6801324C
:1022A0001A601B681B4AA2FB03025209642101FB4E
:1022B00012330BB9184B9847154B1B68174AA2FBF2
:1022C000031292094FF47A7101FB12330BB9144BCC
:1022D00098470F4B1B68134AA2FB0302520B42F2B2
:1022E000107101FB12331BB90F4B98470F4B9847E6
:1022F000074B1B6859090E4AA2FB0102D2090D497E
:1023000001FB123313B901220B4B1A7008BD00BF39
:10231000F03A00201F85EB5165134000D34D621049
:102320004D1440005917B7D141114000351B4000F2
:10233000C55A7C0AA0860100F43A0020034B1968B4
:102340001A4613685B1A8342FBD37047F03A0020A9
:10235000054B1A684FF47A7303FB00F002490B68CF
:102360009B1A8342FBD37047F03A0020F8B52A4B02
:1023700098472A4B98474FF40042294B5A6009204E
:10238000284CA0470A20A0470B20A0470C20A047BC
:102390000D20A047244B4FF400321A61C3F8A0204F
:1023A0001A634FF000621A61C3F8A0201F4B9847D0
:1023B0001F4B98471F4B98471F4B98471F4B1A6856
:1023C00052091F4BA3FB0212D209013A1D4B5A605E
:1023D000F0211D4A82F8231000229A6007221A6019
:1023E0001A4B98471A4B98471A4E1B4D1B4C0E4FD1
:1023F000B047A847A0471A4B1B7813F0FF0FF7D040
:102400000022174B1A70FB6B13F4003F4FF400339C
:1024100014BF7B633B63EBE7751D40004D0140003B
:1024200050180E404D05400000140E401D14400091
:10243000DD12400009194000151B4000000000207B
:10244000C55A7C0A10E000E000ED00E0A50E400057
:10245000F110400081194000BD1B400051114000A7
:10246000F43A002081F0004102E000BF83F0004315
:1024700030B54FEA41044FEA430594EA050F08BF1F
:1024800090EA020F1FBF54EA000C55EA020C7FEAE3
:10249000645C7FEA655C00F0E2804FEA5454D4EB60
:1024A0005555B8BF6D420CDD2C4480EA020281EA2A
:1024B000030382EA000083EA010180EA020281EA62
:1024C0000303362D88BF30BD11F0004F4FEA0131B4
:1024D0004FF4801C4CEA113102D0404261EB4101C3
:1024E00013F0004F4FEA03334CEA133302D0524249
:1024F00063EB430394EA050F00F0A780A4F1010405
:10250000D5F1200E0DDB02FA0EFC22FA05F280183E
:1025100041F1000103FA0EF2801843FA05F3594124
:102520000EE0A5F120050EF1200E012A03FA0EFCA3
:1025300028BF4CF0020C43FA05F3C01851EBE371CD
:1025400001F0004507D54FF0000EDCF1000C7EEBEA
:1025500000006EEB0101B1F5801F1BD3B1F5001F28
:102560000CD349085FEA30004FEA3C0C04F1010447
:102570004FEA445212F5800F80F09A80BCF1004F70
:1025800008BF5FEA500C50F1000041EB045141EAF2
:10259000050130BD5FEA4C0C404141EB010111F4F3
:1025A000801FA4F10104E9D191F0000F04BF01469E
:1025B0000020B1FA81F308BF2033A3F10B03B3F17C
:1025C00020020CDA0C3208DD02F1140CC2F10C020C
:1025D00001FA0CF021FA02F10CE002F11402D8BF6A
:1025E000C2F1200C01FA02F120FA0CFCDCBF41EA36
:1025F0000C019040E41AA2BF01EB0451294330BD05
:102600006FEA04041F3C1CDA0C340EDC04F11404E1
:10261000C4F1200220FA04F001FA02F340EA0300B8
:1026200021FA04F345EA030130BDC4F10C04C4F1FE
:10263000200220FA02F001FA04F340EA03002946DE
:1026400030BD21FA04F0294630BD94F0000F83F428
:10265000801306BF81F480110134013D4EE77FEA0B
:10266000645C18BF7FEA655C29D094EA050F08BF57
:1026700090EA020F05D054EA000C04BF1946104638
:1026800030BD91EA030F1EBF0021002030BD5FEA7C
:10269000545C05D14000494128BF41F0004130BDA4
:1026A00014F580043CBF01F5801130BD01F00045F8
:1026B00045F0FE4141F470014FF0000030BD7FEA6B
:1026C000645C1ABF194610467FEA655C1CBF0B4666
:1026D000024650EA013406BF52EA033591EA030F7D
:1026E00041F4002130BD00BF90F0000F04BF002175
:1026F000704730B54FF4806404F132044FF00005A8
:102700004FF0000150E700BF90F0000F04BF002120
:10271000704730B54FF4806404F1320410F0004586
:1027200048BF40424FF000013EE700BF42004FEA81
:10273000E2014FEA31014FEA02701FBF12F07F43FE
:1027400093F07F4F81F06051704792F0000F14BFFB
:1027500093F07F4F704730B54FF4607401F000453F
:1027600021F0004120E700BF50EA010208BF704796
:1027700030B54FF000050AE050EA010208BF70478B
:1027800030B511F0004502D5404261EB41014FF4F4
:10279000806404F132045FEA915C3FF4DCAE4FF0F8
:1027A00003025FEADC0C18BF03325FEADC0C18BFDF
:1027B000033202EBDC02C2F1200300FA03FC20FA30
:1027C00002F001FA03FE40EA0E0021FA02F114447D
:1027D000C1E600BF70B54FF0FF0C4CF4E06C1CEA92
:1027E00011541DBF1CEA135594EA0C0F95EA0C0F07
:1027F00000F0DEF82C4481EA030621EA4C5123EA7A
:102800004C5350EA013518BF52EA033541F48011A8
:1028100043F4801338D0A0FB02CE4FF00005E1FB5B
:1028200002E506F00042E0FB03E54FF00006E1FBA5
:1028300003569CF0000F18BF4EF0010EA4F1FF04E8
:10284000B6F5007F64F5407404D25FEA4E0E6D4128
:1028500046EB060642EAC62141EA55514FEAC52039
:1028600040EA5E504FEACE2EB4F1FD0C88BFBCF5B5
:10287000E06F1ED8BEF1004F08BF5FEA500E50F166
:10288000000041EB045170BD06F0004646EA01012C
:1028900040EA020081EA0301B4EB5C04C2BFD4EB5E
:1028A0000C0541EA045170BD41F480114FF0000E57
:1028B000013C00F3AB8014F1360FDEBF002001F0C5
:1028C000004170BDC4F10004203C35DA0C341BDC3F
:1028D00004F11404C4F1200500FA05F320FA04F011
:1028E00001FA05F240EA020001F0004221F0004145
:1028F00010EBD37021FA04F642EB06015EEA430EB8
:1029000008BF20EAD37070BDC4F10C04C4F12005E7
:1029100000FA04F320FA05F001FA04F240EA02009A
:1029200001F0004110EBD37041F100015EEA430E6B
:1029300008BF20EAD37070BDC4F1200500FA05F28B
:102940004EEA020E20FA04F301FA05F243EA02030A
:1029500021FA04F001F0004121FA04F220EA020019
:1029600000EBD3705EEA430E08BF20EAD37070BD5F
:1029700094F0000F0FD101F00046400041EB01013F
:1029800011F4801F08BF013CF7D041EA060195F021
:10299000000F18BF704703F00046520043EB0303DB
:1029A00013F4801F08BF013DF7D043EA06037047C8
:1029B00094EA0C0F0CEA135518BF95EA0C0F0CD0D3
:1029C00050EA410618BF52EA4306D1D181EA030119
:1029D00001F000414FF0000070BD50EA410606BF13
:1029E0001046194652EA430619D094EA0C0F02D158
:1029F00050EA013613D195EA0C0F05D152EA03369D
:102A00001CBF104619460AD181EA030101F00041BA
:102A100041F0FE4141F470014FF0000070BD41F003
:102A2000FE4141F4780170BD70B54FF0FF0C4CF4DD
:102A3000E06C1CEA11541DBF1CEA135594EA0C0FFC
:102A400095EA0C0F00F0A7F8A4EB050481EA030E49
:102A500052EA03354FEA013100F088804FEA033330
:102A60004FF0805545EA131343EA12634FEA0222FE
:102A700045EA111545EA10654FEA00260EF00041BF
:102A80009D4208BF964244F1FD0404F5407402D211
:102A90005B084FEA3202B61A65EB03055B084FEAA2
:102AA00032024FF480104FF4002CB6EB020E75EB9F
:102AB000030E22BFB61A754640EA0C005B084FEAC7
:102AC0003202B6EB020E75EB030E22BFB61A754644
:102AD00040EA5C005B084FEA3202B6EB020E75EB8F
:102AE000030E22BFB61A754640EA9C005B084FEA07
:102AF0003202B6EB020E75EB030E22BFB61A754614
:102B000040EADC0055EA060E18D04FEA051545EA02
:102B100016754FEA06164FEAC30343EA52734FEAAB
:102B2000C2025FEA1C1CC0D111F4801F0BD141EA24
:102B300000014FF000004FF0004CB6E711F4801F89
:102B400004BF01430020B4F1FD0C88BFBCF5E06F69
:102B50003FF6AFAEB5EB030C04BFB6EB020C5FEA79
:102B6000500C50F1000041EB045170BD0EF0004ECE
:102B70004EEA113114EB5C04C2BFD4EB0C0541EA00
:102B8000045170BD41F480114FF0000E013C90E6FD
:102B900045EA060E8DE60CEA135594EA0C0F08BFC1
:102BA00095EA0C0F3FF43BAF94EA0C0F0AD150EAC0
:102BB00001347FF434AF95EA0C0F7FF425AF104653
:102BC00019462CE795EA0C0F06D152EA03353FF47B
:102BD000FDAE1046194622E750EA410618BF52EAF8
:102BE00043067FF4C5AE50EA41047FF40DAF52EACC
:102BF00043057FF4EBAE12E74FF0FF3C06E000BF69
:102C00004FF0010C02E000BF4FF0010C4DF804CD75
:102C10004FEA410C7FEA6C5C4FEA430C18BF7FEA35
:102C20006C5C1BD001B050EA410C0CBF52EA430C63
:102C300091EA030F02BF90EA020F0020704710F1E3
:102C4000000F91EA030F58BF994208BF90422CBF72
:102C5000D8176FEAE37040F0010070474FEA410C6B
:102C60007FEA6C5C02D150EA013C07D14FEA430C89
:102C70007FEA6C5CD6D152EA033CD3D05DF8040BFA
:102C8000704700BF8446104662468C46194663462C
:102C900000E000BF01B5FFF7B7FF002848BF10F103
:102CA000000F01BD4DF808EDFFF7F4FF0CBF012048
:102CB00000205DF808FB00BF4DF808EDFFF7EAFFC4
:102CC00034BF012000205DF808FB00BF4DF808ED7F
:102CD000FFF7E0FF94BF012000205DF808FB00BF74
:102CE0004DF808EDFFF7CEFF94BF012000205DF8FE
:102CF00008FB00BF4DF808EDFFF7C4FF34BF01200B
:102D000000205DF808FB00BF4FEA4102B2F1E0434A
:102D100024BFB3F5001CDCF1FE5C0DD901F0004CC2
:102D20004FEAC0024CEA5070B2F1004F40EB830012
:102D300008BF20F00100704711F0804F21D113F13E
:102D40003872BCBF01F00040704741F480114FEA77
:102D50005252C2F11802C2F1200C10FA0CF320FA00
:102D600002F018BF40F001004FEAC1234FEAD3231D
:102D700003FA0CFC40EA0C0023FA02F34FEA430387
:102D8000CCE77FEA625307D150EA01331EBF4FF010
:102D9000FE4040F44000704701F0004040F0FE402B
:102DA00040F40000704700BF80F0004002E000BF28
:102DB00081F0004142001FBF5FEA410392EA030F26
:102DC0007FEA226C7FEA236C6AD04FEA1262D2EB70
:102DD0001363C1BFD218414048404140B8BF5B4275
:102DE000192B88BF704710F0004F40F4000020F00E
:102DF0007F4018BF404211F0004F41F4000121F024
:102E00007F4118BF494292EA030F3FD0A2F101026D
:102E100041FA03FC10EB0C00C3F1200301FA03F1AB
:102E200000F0004302D5494260EB4000B0F5000FCE
:102E300013D3B0F1807F06D340084FEA310102F18D
:102E40000102FE2A51D2B1F1004F40EBC25008BF3F
:102E500020F0010040EA03007047490040EB000009
:102E600010F4000FA2F10102EDD1B0FA80FCACF138
:102E7000080CB2EB0C0200FA0CF0AABF00EBC25037
:102E800052421843BCBFD0401843704792F0000F25
:102E900081F4000106BF80F400000132013BB5E778
:102EA0004FEA41037FEA226C18BF7FEA236C21D0EE
:102EB00092EA030F04D092F0000F08BF0846704753
:102EC00090EA010F1CBF0020704712F07F4F04D121
:102ED000400028BF40F00040704712F100723CBF34
:102EE00000F50000704700F0004343F0FE4040F45E
:102EF000000070477FEA226216BF08467FEA23631C
:102F00000146420206BF5FEA412390EA010F40F406
:102F1000800070474FF0000304E000BF10F0004352
:102F200048BF40425FEA000C08BF704743F0964339
:102F300001464FF000001CE050EA010208BF704754
:102F40004FF000030AE000BF50EA010208BF7047DB
:102F500011F0004302D5404261EB41015FEA010CF0
:102F600002BF84460146002043F0B64308BFA3F1E8
:102F70008053A3F50003BCFA8CF2083AA3EBC253CA
:102F800010DB01FA02FC634400FA02FCC2F12002E9
:102F9000BCF1004F20FA02F243EB020008BF20F020
:102FA0000100704702F1200201FA02FCC2F1200286
:102FB00050EA4C0021FA02F243EB020008BF20EA7B
:102FC000DC7070474FF0FF0C1CEAD0521EBF1CEAA9
:102FD000D15392EA0C0F93EA0C0F6FD01A4480EA97
:102FE000010C400218BF5FEA41211ED04FF0006380
:102FF00043EA501043EA5111A0FB01310CF00040AC
:10300000B1F5000F3EBF490041EAD3715B0040EAD1
:10301000010062F17F02FD2A1DD8B3F1004F40EBA1
:10302000C25008BF20F00100704790F0000F0CF074
:10303000004C08BF49024CEA502040EA51207F3A38
:10304000C2BFD2F1FF0340EAC250704740F4000013
:103050004FF00003013A5DDC12F1190FDCBF00F004
:1030600000407047C2F10002410021FA02F1C2F1B2
:10307000200200FA02FC5FEA310040F1000053EA4E
:103080004C0308BF20EADC70704792F0000F00F09C
:10309000004C02BF400010F4000F013AF9D040EAA2
:1030A0000C0093F0000F01F0004C02BF490011F436
:1030B000000F013BF9D041EA0C018FE70CEAD15334
:1030C00092EA0C0F18BF93EA0C0F0AD030F0004CB4
:1030D00018BF31F0004CD8D180EA010000F0004068
:1030E000704790F0000F17BF90F0004F084691F026
:1030F000000F91F0004F14D092EA0C0F01D1420260
:103100000FD193EA0C0F03D14B0218BF084608D128
:1031100080EA010000F0004040F0FE4040F4000072
:10312000704740F0FE4040F4400070474FF0FF0C05
:103130001CEAD0521EBF1CEAD15392EA0C0F93EA4C
:103140000C0F69D0A2EB030280EA010C49024FEA9E
:10315000402037D04FF0805343EA111143EA101357
:103160000CF000408B4238BF5B0042F17D024FF40F
:10317000000C8B4224BF5B1A40EA0C00B3EB510FEA
:1031800024BFA3EB510340EA5C00B3EB910F24BFD3
:10319000A3EB910340EA9C00B3EBD10F24BFA3EB58
:1031A000D10340EADC001B0118BF5FEA1C1CE0D120
:1031B000FD2A3FF650AF8B4240EBC25008BF20F0D3
:1031C000010070470CF0004C4CEA50207F32C2BF27
:1031D000D2F1FF0340EAC250704740F400004FF0C4
:1031E0000003013A37E792F0000F00F0004C02BFF5
:1031F000400010F4000F013AF9D040EA0C0093F0BF
:10320000000F01F0004C02BF490011F4000F013B18
:10321000F9D041EA0C0195E70CEAD15392EA0C0F80
:1032200008D142027FF47DAF93EA0C0F7FF470AFB8
:10323000084676E793EA0C0F04D14B023FF44CAFFB
:1032400008466EE730F0004C18BF31F0004CCAD190
:1032500030F000427FF45CAF31F000437FF43CAFCC
:103260005FE700BF4FF0FF3C06E000BF4FF0010CEE
:1032700002E000BF4FF0010C4DF804CD4FEA4002D0
:103280004FEA41037FEA226C18BF7FEA236C11D01A
:1032900001B052EA530C18BF90EA010F58BFB2EBCD
:1032A000030088BFC81738BF6FEAE17018BF40F04D
:1032B000010070477FEA226C02D15FEA402C05D101
:1032C0007FEA236CE4D15FEA412CE1D05DF8040B86
:1032D000704700BF844608466146FFE70FB5FFF719
:1032E000C9FF002848BF10F1000F0FBD4DF808EDD1
:1032F000FFF7F4FF0CBF012000205DF808FB00BFC2
:103300004DF808EDFFF7EAFF34BF012000205DF81B
:1033100008FB00BF4DF808EDFFF7E0FF94BF012068
:1033200000205DF808FB00BF4DF808EDFFF7D2FF65
:1033300094BF012000205DF808FB00BF4DF808EDA8
:10334000FFF7C8FF34BF012000205DF808FB00BF75
:103350004FEA4002B2F1FE4F0FD34FF09E03B3EBA2
:1033600012620DD94FEA002343F0004310F0004FE2
:1033700023FA02F018BF404270474FF00000704738
:1033800012F1610F01D1420205D110F0004008BFD7
:103390006FF0004070474FF00000704770B50F4E5F
:1033A0000F4D761BB61007D0043D0024013455F8AC
:1033B000043F9847A642F9D10A4E0B4D761B04F004
:1033C0005BFBB61008D0043D0024013455F8043FDF
:1033D0009847A642F9D170BD70BD00BF847A400005
:1033E000847A40008C7A4000847A4000844641EA26
:1033F000000313F003036DD1403A41D351F8043B6D
:1034000040F8043B51F8043B40F8043B51F8043BBE
:1034100040F8043B51F8043B40F8043B51F8043BAE
:1034200040F8043B51F8043B40F8043B51F8043B9E
:1034300040F8043B51F8043B40F8043B51F8043B8E
:1034400040F8043B51F8043B40F8043B51F8043B7E
:1034500040F8043B51F8043B40F8043B51F8043B6E
:1034600040F8043B51F8043B40F8043B51F8043B5E
:1034700040F8043B51F8043B40F8043B403ABDD2CD
:10348000303211D351F8043B40F8043B51F8043B6F
:1034900040F8043B51F8043B40F8043B51F8043B2E
:1034A00040F8043B103AEDD20C3205D351F8043BFE
:1034B00040F8043B043AF9D2043208D0D2071CBFCA
:1034C00011F8013B00F8013B01D30B8803806046F3
:1034D000704700BF082A13D38B078DD010F0030369
:1034E0008AD0C3F10403D21ADB071CBF11F8013BD9
:1034F00000F8013B80D331F8023B20F8023B7BE728
:10350000043AD9D3013A11F8013B00F8013BF9D252
:103510000B7803704B7843708B78837060467047EC
:10352000F0B4840743D0541E002A3ED0CDB20346E7
:1035300003E0621E002C38D0144603F8015B9A07A2
:10354000F7D1032C2AD9CDB245EA05250F2C45EA3F
:10355000054515D9A4F110073F0903F1100606EB44
:1035600007161A46156055609560D5601032B24254
:10357000F8D104F00F040137032C03EB07130DD926
:103580001E462246043A032A46F8045BFAD8221F54
:1035900022F003020432134404F003042CB1C9B234
:1035A0001C4403F8011BA342FBD1F0BC7047144636
:1035B0000346C6E70CB4F0B5174B0C1E9DB01F6850
:1035C00024DB4FF4027323AD14BF04F1FF3626460B
:1035D00002900690ADF814304FF6FF7E2B46384629
:1035E00002A9229A049607960195ADF816E000F01C
:1035F000D1F8431CBCBF8B233B6014B1029B00225B
:103600001A701DB0BDE8F04002B070478B233B60DC
:103610004FF0FF30F5E700BF9035002020F00301A8
:1036200010F00300C0F1000051F8043B00F1040C5D
:103630004FEACC0C6FF000021CBF22FA0CF21343CD
:103640004FF0010C4CEA0C2C4CEA0C4CA3EB0C0296
:1036500022EA030212EACC1204BF51F8043B043000
:10366000F4D013F0FF0F1FBF013013F47F4F013070
:1036700013F47F0F18BF0130704700BF30B4002A29
:103680004AD040EA010313F003032DD1032A2BD9BA
:1036900004680D68AC4227D1043A3DD0A4F101354D
:1036A00025EA040414F0803F3CD10C4603460EE0AA
:1036B0005B686468A3F10135A34225EA030513D1D1
:1036C000043A29D015F0803F29D103460C46032A3D
:1036D00000F1040001F10401EAD8551E2AB9187955
:1036E0002279801A30BC7047551E03780A789342BD
:1036F0001AD1DDB1B3B16C1C0C448B1C014604E043
:10370000A3420CD001330028ECD011F8010F13F8BC
:10371000012C9042F4D0E4E7104630BC7047002002
:1037200030BC70471846DDE71846DAE72846D9E787
:1037300040EA01039B0770B42AD1032A28D90C461A
:103740000346214654F8045BA5F1013626EA050636
:1037500016F0803F05D1043A032A43F8045B214662
:10376000EFD89AB10C781C70013A01333CB16AB1C0
:1037700011F8014F03F8014B013A002CF7D12AB19F
:103780001A44002103F8011B9342FBD170BC70471F
:103790000346E6E72DE9F04FC9B0914610930C912E
:1037A0000D9002F06DFB00681590FFF737FF0C9C41
:1037B0001890A3891A0603D52369002B01F08D8088
:1037C00038ACA44608942B9400250024CDE9164576
:1037D000002311932D932C931A9319930E936646FD
:1037E00099F80030002B00F0F880252B00F0F580D0
:1037F00009F1010201E0252B04D01446013223789F
:10380000002BF8D1C9EB04057DB12C9B2D9AC6F88D
:10381000009001332A44072B75602D922C9300F3FE
:10382000C28008360E9828440E902378002B00F0B2
:10383000C280002394F801808DF88F301A460F93D0
:10384000099304F101094FF0FF340A9409F10109C9
:10385000A8F12003582B00F2C783DFE813F06A02B7
:10386000C503C5037102C503C503C503C503C5036D
:10387000C50314036403C5039D00C000C50378029B
:103880007F027F027F027F027F027F027F027F0230
:103890007F02C503C503C503C503C503C503C5032F
:1038A000C503C503C50390026F03C5036F03C503BA
:1038B000C503C503C5036803C503C5037800C50375
:1038C000C503C503C503C5035900C503C503AF023E
:1038D000C503C503C503C503C503C503C503C503A8
:1038E000C503C503370348036F036F036F03FF026C
:1038F0004803C503C5030803C503C5027C002103B3
:10390000A503C503D902C5035F00C503C503DE00D7
:10391000DDF824C04CF0100CCDF824C0099CA206A0
:1039200000F15683099CE30600F1E085DDF824C030
:103930001CF0400F00F0DA85DDF840C0BCF8004014
:103940000CF1040C00250123CDF840C08CE0099D4A
:1039500045F010050995DDF824C01CF0200340F067
:103960002C83DDF824C01CF0100240F0B885DDF88F
:1039700024C01CF0400300F0B285DDF840C0BCF864
:1039800000400CF1040C13460025CDF840C06BE05C
:103990000F9C109364420F94099D45F0040509950E
:1039A00099F8008052E70D980C992BAA03F0DEFAE3
:1039B00040B938AE36E72D9B23B10D980C992BAA50
:1039C00003F0D4FA0C9C0E98A38913F0400F18BF93
:1039D0004FF0FF3049B0BDE8F08F4C4625E799F82D
:1039E0000080B8F12A0F09F1010001F01881A8F157
:1039F0003003092B98BF002101F2778010F8018B6A
:103A000001EB810103EB4101A8F13003092BF5D94A
:103A100041EAE1710A9181461AE7099DA14C1A9485
:103A2000AF068DF88F2040F1D181DDF840C00CF158
:103A3000070323F0070303F108041094D3E90045BA
:103A4000DDF824C01CF0010F00F0648454EA050086
:103A500000F0608430234CF0020C8DF890308DF82B
:103A60009180CDF824C002234FF0000A8DF88FA07A
:103A70000A99002905DBDDF824C02CF0800CCDF874
:103A800024C054EA050040F0C7820A99002940F09A
:103A9000C382002B40F03A84DDF824C01CF0010FF3
:103AA00000F0348448AF302307F8413D089DEC1BFB
:103AB000DDF828C000256445A8BFA446CDF82CC079
:103AC0001495BAF1000F02D00B9D01350B95099B9F
:103AD00013F00203129302D00B9D02350B95DDF813
:103AE00024C01CF0840CCDF84CC040F092820F9D95
:103AF000DDF82CC0CCEB050BBBF1000F40F3898245
:103B0000BBF1100F2D992C9ADFF8A0A12CDD1B978B
:103B1000304657461025CA460C9EA1460D9C06E02D
:103B2000ABF1100BBBF1100F00F1080017DD0132F3
:103B30001031072A2D912C9207604560F0DD204658
:103B400031462BAA03F012FA00287FF43BAFABF109
:103B5000100BBBF1100F2D992C9A38A8E7DC4C46BE
:103B6000D146BA461B9F064601320BEB010C072AD1
:103B7000CDF8B4C02C9286E8000C00F31C849DF8AC
:103B80008FA00836BAF1000F0FD02C9B01330CF137
:103B9000010C0DF18F010122072BCDF8B4C02C933D
:103BA00086E8060000F39A830836129B73B12C9BBB
:103BB00001330CF1020C24A90222072BCDF8B4C06A
:103BC0002C9386E8060000F395830836139D802D1C
:103BD00000F0CC820A9DC4EB050ABAF1000F3BDD70
:103BE000BAF1100F2C9B304D2BDD0A9432464FF06A
:103BF000100B2E4661460D9C0C9D06E0AAF1100AA2
:103C0000BAF1100F02F1080217DD01331031072B52
:103C10002D912C9382E84008F0DD204629462BAAFE
:103C200003F0A4F900287FF4CDAEAAF1100ABAF18E
:103C3000100F2D992C9B38AAE7DC0A9C35468C4640
:103C400016460133D444072BCDF8B4C02C9386E834
:103C5000200400F337830836099DED0500F1268224
:103C60002C9B37600133A444072BCDF8B4C074609B
:103C70002C9300F311830836099C630749D50F9DE7
:103C80000B982C1A002C44DD102C2C9BDFF81CA068
:103C90002BDD574610256246DDF83080DDF834A074
:103CA0000BE000BF2C7940004C794000F8784000D0
:103CB000103C102C06F1080615DD01331032072BDD
:103CC0002D922C9337607560F2DD504641462BAA49
:103CD00003F04CF900287FF475AE103C102C2D9A9F
:103CE0002C9B38AEE9DC9446BA460133A444072B3A
:103CF000CDF8B4C02C93C6F800A0746009DD0D980F
:103D00000C992BAA03F032F900287FF45BAEDDF8A2
:103D1000B4C00E9C0B980F9DA842ACBF2418641928
:103D20000E94BCF1000F40F0C38200232C9338AEF8
:103D300056E599F80080002A7FF488AD202285E5B9
:103D4000099D45F00105099599F800807EE5099DDA
:103D500045F08005099599F8008077E50024A8F1E1
:103D600030030F94214619F8018B01EB810103EB1D
:103D70004101A8F13003092BF5D90F9168E5DDF871
:103D800024C08DF88F204CF0100CCDF824C0099C75
:103D9000A30640F1B280109DE91D21F00701D1E991
:103DA00000230831109114461D46002A73F10000CB
:103DB000C0F28B839DF88FA0012359E6099DB74C73
:103DC0008DF88F20AF061A943FF52FAE099DED06B2
:103DD00040F15D84DDF840C0DCF800400CF1040CDB
:103DE000CDF840C000252BE6DDF824C08DF88F20EB
:103DF0001CF0200F00F03D84109C21680E9CE517FC
:103E00002B46109D224604351095C1E90023E7E4B6
:103E1000109C27684FF0000A8DF88FA0251D002FF9
:103E200000F0F5850A9C002C3846C0F2A785514663
:103E3000224602F0C5FA002800F01F860A9C109561
:103E4000C01BA042B8BF044624EAE475CDF828A000
:103E5000CDF850A00B959DF88FA032E6DDF824C078
:103E60004CF0400CCDF824C099F80080EEE499F8AD
:103E70000080B8F16C0F4B4600F08B84099D45F033
:103E800010050995E2E4109C109D24680F94002C05
:103E900005F10403FFF67CAD109399F80080D5E49A
:103EA000109ADDF824C07E4814681A903023151D3E
:103EB0004FF078084CF0020C8DF890301095CDF84A
:103EC00024C000258DF891800223CDE5109A109D25
:103ED00012688DF8B8200023012404359A460B940B
:103EE00010958DF88F300A9314932EAFEFE5099C4F
:103EF0008DF88F20A3063FF54EAFDDF824C01CF0EF
:103F0000100F40F0D282099C670640F1CE82DDF8A6
:103F100040C0BCF900400CF1040CE51722462B46CA
:103F2000CDF840C041E799F800802B228EE4099D2E
:103F300045F00805099599F8008087E4109D099CD3
:103F40008DF88F20EB1D250723F0070340F18A83AE
:103F5000D3E90045CDE9164503F1080CCDF840C082
:103F6000DDE9160102F0C8FF0128DDE9160140F085
:103F70005F8300220023FEF79FFE002840F06D853E
:103F80009DF88FA003250B95099D464F464B25F0C4
:103F900080050024099500250A94B8F1470FD8BF81
:103FA0001F46032414958CE5DDF824C04CF0200C4A
:103FB000CDF824C099F8008048E4109CE31D23F05C
:103FC000070303F108051095D3E9004500234BE5ED
:103FD000109DEB1D23F0070303F1080CD3E9004506
:103FE000CDF840C001233FE58DF88F20B8F1000FD8
:103FF0003FF4E1AC00234FF0010C9A46CDF82CC001
:104000008DF8B8808DF88F300A93149364462EAFE4
:104010005DE5DDF8B4C0B5E5012B00F0EC80022BC6
:104020000DF1DF0318D1DDF868C0194604F00F0068
:10403000220942EA05720F462B091CF8001039705C
:1040400052EA030014461D4607F1FF31EED1089DE8
:10405000CDE91E23EC1B2BE5E00840EA457004F097
:104060000702E908303250EA010C1F461A70044674
:104070000D4603F1FF33EFD1099CCDE91C01E007A8
:10408000394640F1C180302A00F0BE80089D1F46AD
:104090003023EC1B01F8013C0AE500BF1879400011
:1040A0002C7940000C79400008794000B8F1650F88
:1040B00040F3AD80DDE9160100220023CDF81CC0DD
:1040C000FEF7F0FDDDF81CC0002800F026812C9BD7
:1040D000AA4A326001330CF1010C0122072BCDF802
:1040E000B4C02C93726000F3F7820836259B119CB4
:1040F000A34203DB099DEC077FF5BEAD2C9B189D09
:10410000159C34600133AC44072BCDF8B4C0756006
:104110002C9300F348830836119D6C1E002C7FF70A
:10412000ABAD102C2C9B964D40F397811027624627
:10413000DDF83480DDF830A004E00836103C102CA7
:1041400040F38A8101331032072B2D922C9386E89D
:10415000A000F2DD404651462BAA02F007FF0028DE
:104160007FF430AC2D9A2C9B38AEE7E70F9D0B986F
:10417000C0EB050ABAF1000F7FF72CADBAF1100FB2
:104180002C9B7F4D2BDD129432464FF0100B2E46A8
:1041900061460D9C0C9D06E0AAF1100ABAF1100FC1
:1041A00002F1080217DD01331031072B2D912C93FA
:1041B00082E84008F0DD204629462BAA02F0D6FE10
:1041C00000287FF4FFABAAF1100ABAF1100F2D9965
:1041D0002C9B38AAE7DC129C35468C4616460133E8
:1041E000D444072BCDF8B4C02C9386E8200400F308
:1041F00012820836EEE4002D08BF0A2C80F03881C8
:1042000048AF303407F8414D089DEC1B50E4119C39
:10421000012C2C9C40F3D58101340CF101030122C7
:10422000072C37602D932C94726000F3DB810836E5
:10423000DDF86080159D356001349844189DCDF8F7
:10424000B480072C2C94756000F3D8810836DDE922
:10425000160100220023FEF725FD119D002840F0E5
:10426000B9806B1E013401379844072C2C94CDF88B
:10427000B4803760736000F3E2800836DDF864C014
:10428000199D0134C44427AB072CCDF8B4C02C943D
:1042900086E828007FF7EFAC0D980C992BAA02F066
:1042A00065FE00287FF48EABDDF8B4C038AEE3E4E1
:1042B0000D980C992BAA02F059FE00283FF435AD59
:1042C000FFF780BB0D980C992BAA02F04FFE002837
:1042D0007FF478ABDDF8B4C038AEBDE40D980C992E
:1042E0002BAA02F043FE00287FF46CABDDF8B4C0CB
:1042F00038AE5AE40D980C992BAA02F037FE00282C
:104300007FF460ABDDF8B4C038AE5FE40A9C38AF30
:10431000FFF7CEBB0223FFF7A7BB259B002B40F383
:10432000E781119C149DDDF844A0AC42A8BF2C4647
:10433000002CBA440BDD2C9B37600133A444072BBF
:10434000CDF8B4C074602C9300F328830836149D14
:1043500024EAE4742C1B002C40F3DB80102C2C9BF3
:10436000074D40F3AD810A974FF010082F46624683
:104370002546DDF834B00C9C09E000BF48794000C8
:104380004C7940000836103D102D40F395810133E3
:104390001032072B2D922C9386E88001F2DD5846CF
:1043A00021462BAA02F0E2FD00287FF40BAB2D9AE8
:1043B0002C9B38AEE7E70D980C992BAA02F0D6FD9E
:1043C00000287FF4FFAA9DF88FA0DDF8B4C038AEB6
:1043D000FFF7D8BB6F1E002F7FF750AF102FB34DE4
:1043E00023DD43464FF0100ADDF83480DDF830B0AD
:1043F00004E0103F102F06F1080615DD01341033DC
:10440000072C2D932C9486E82004F2DD4046594673
:104410002BAA02F0ABFD00287FF4D4AA103F102F86
:104420002D9B2C9C38AEE9DC98460134B844072C0F
:10443000CDF8B4802C9486E8A0007FF71EAF0D98CD
:104440000C992BAA02F092FD00287FF4BBAADDF89C
:10445000B4802C9C38AE11E794460133A444072B5A
:10446000CDF8B4C02C93356074607FF704AC13E7CB
:104470000DF1DF0B204629460A22002302F0A2FE9E
:1044800030328BF80020204629460A22002302F011
:1044900099FE04460D4654EA050C5F460BF1FF3BBE
:1044A000E8D1089DEC1BFFF703BB109DDDF840C071
:1044B0002C68E51722462B460CF1040C002A73F1F8
:1044C0000000CDF840C0BFF675AC4FF02D0A644235
:1044D00065EB45058DF88FA00123FFF7C9BA109D44
:1044E0002C68043510950025FFF7BEBA109D2C6886
:1044F0000435109501230025FFF7B6BA0D980C99E5
:104500002BAA02F033FD00287FF45CAADDF8B4C0CA
:1045100038AE149D259C2F44119DAC4242DB099D71
:10452000E9073FD41198C7EB0A05041BAC42B8BF9A
:104530002546002D0BDD2C9B37600133AC44072B47
:10454000CDF8B4C075602C9300F35282083625EA8A
:10455000E575641B002C7FF78FAB102C2C9B534D03
:104560007FF77BAF10276246DDF83480DDF830A09E
:1045700004E00836103C102C7FF76EAF0133103288
:10458000072B2D922C9386E8A000F2DD4046514681
:104590002BAA02F0EBFC00287FF414AA2D9A2C9B86
:1045A00038AEE7E72C9B159D3560189D756001338B
:1045B000AC44072BCDF8B4C02C9300F3FB81083634
:1045C000B0E7099DEA073FF527AE01340CF1010879
:1045D0000123072CCDF8B4802C94376073607FF7EB
:1045E0004CAE2CE70D980C992BAA02F0BFFC0028CA
:1045F0007FF4E8A92D9B2C9C38AE19E60D980C99F8
:104600002BAA02F0B3FC00287FF4DCA9DDF8B4800B
:104610002C9C38AE1BE60D980C992BAA02F0A6FC38
:1046200000287FF4CFA9DDF8B4C038AEFFF7D2BAC6
:1046300002F062FC002840F0C280099C1C4F1D4B18
:104640009DF88FA00A904FF0030C24F08004099489
:10465000CDF82CC01490B8F1470FD8BF1F46644660
:10466000FFF72FBAD3E900450833CDE9164510937B
:1046700076E4DDF824C01CF0100F00F05581109C8A
:104680000E9D2368043410941D60FFF7A9B8099C9F
:10469000640640F14281DDF840C0BCF800400CF1F6
:1046A000040C0025CDF840C0FFF7CAB94C79400092
:1046B00014794000107940002C463D460A9F9446EC
:1046C0000133A444072BCDF8B4C02C93356074603B
:1046D0003FF714AF08361CE70D980C992BAA02F08F
:1046E00045FC00287FF46EA9DDF8B4C038AEFDE4C7
:1046F0002C9AB749316001320CF1010C0121072AD3
:10470000CDF8B4C02C92716000F3F78008361C46D7
:104710002CB9119D1DB9099DE8077FF5ADAA2C9B09
:104720001899159D356001336144189D2D91072B13
:1047300075602C9300F3DE8106F108026442002CC0
:1047400040F30B81102CA34D40F34881A346102663
:104750000C46DDF83480DDF830A006E00832ABF11D
:10476000100BBBF1100F40F3378101331034072BCE
:104770002D942C9382E86000F0DD404651462BAA30
:1047800002F0F4FB00287FF41DA92D9C2C9B38AA75
:10479000E5E7099C93F8018044F0200409F1010940
:1047A0000994FFF753B80D980C992BAA02F0DEFB81
:1047B00000287FF407A9DDF8B4C038AEACE40A9D48
:1047C000013528F0200A00F0A580BAF1470F04D186
:1047D0000A9D002D08BF01250A95DDE91623DDF8A5
:1047E00024C0002B4CF4807CCDF848C0C0F29C81E2
:1047F000DDE91645CDE920454FF0000BB8F1660F15
:1048000000F09B81B8F1460F00F0A981BAF1450F85
:104810000ABF0A9C0A9D651C022025A926AA29AB6D
:104820008DE821000392049302910D98DDE9202385
:1048300000F0D6FAB8F1670F074602D0B8F1470F7B
:1048400005D1DDF824C01CF0010F00F09C81BAF105
:10485000460F07EB050400F01C81DDE92001002272
:104860000023FEF71FFA002840F00581299B9C4297
:1048700006D930215A1C29921970299B9C42F9D8DB
:10488000DB1BBAF1470F119300F0ED80B8F1650F13
:1048900040F3F281B8F1660F00F06881259C149412
:1048A000119C149DAC4200F33281DDF824C01CF051
:1048B000010F40F0AD8125EAE5732C464FF0670803
:1048C000BBF1000F40F0B280129D0B930995CDF81B
:1048D00028B09DF88FA0FFF7F4B80D98402101F0A3
:1048E000D3FA20602061002800F0BF81DDF830C0DD
:1048F0004023CCF81430FEF763BF0D980C992BAA17
:1049000002F034FB00287FF45DA8259CDDF8B4C0DC
:1049100038AEFDE606240A945FE7109D2C68043546
:1049200010950025FFF78CB8DDF824C01CF0400F6F
:1049300000F08780109C0E9D2368043410941D8025
:10494000FEF74EBF0D980C992BAA02F00FFB002822
:104950007FF438A82D992C9B38AADDF844C0119C0F
:10496000176001338C44072BCDF8B4C02C935460EE
:104970003FF792AC02F10806FFF77EB9CDF828A008
:10498000FEF74CFE109520EAE07C0A9DCDF82CC085
:10499000044614959DF88FA0FFF793B80D980C99D5
:1049A0002BAA02F0E3FA00287FF40CA8DDF8B4C0CB
:1049B00038AECCE40D980C992BAA02F0D7FA002857
:1049C0007FF400A8259CDDF8B4C038AEAAE500BF8E
:1049D000487940004C79400021465C46013321442F
:1049E000072B2D912C9315605460ABDC0832B4E793
:1049F0000D980C992BAA02F0B9FA00287EF4E2AFC8
:104A0000259C1199DDF8B4C00C1B38AE9FE50A9CBB
:104A10001497062C28BF062424EAE47CBA460A9799
:104A20001095CDF82CC0974FFFF74BB8129D099504
:104A30004FF02D0A00250B938DF88FA00A95FFF7F4
:104A400043B8DDF840C00E9CDCF800300CF1040CDB
:104A5000CDF840C01C60FEF7C3BE4FF02D0A8DF8A4
:104A60008FA0FFF78FBA259BDC1C19DB0A9C9C42A8
:104A700016DB149314E7234602E724EAE47CCDF81E
:104A80002CC00A9C10950A9014909DF88FA0FFF7F7
:104A900018B83B78302B00F0AD80259D2C44DCE627
:104AA000A8F10208013B002B2593BABF5B422D22DF
:104AB0002B22092B8DF89C808DF89D2065DC3033EE
:104AC00030228DF89F308DF89E2028AB119D119CCF
:104AD00027AA9A1A012D1992144440F3B780013481
:104AE000002524EAE4731495EAE6002481460A943A
:104AF000FEF7AEBE0D980C992BAA02F037FA0028EB
:104B00007EF460AF259C2D992C9B38AA16E6149C48
:104B1000119D002CD4BFC4F1020401242C4424EACA
:104B2000E4734FF06708CBE617991698209001F1CF
:104B3000004121914FF02D0B60E60A9D0195032065
:104B400025A926AA29AB00900392049302910D98FF
:104B5000DDE9202300F044F90A9D074677E60A9C28
:104B60000194032025A926AA29ABECE7259D1495DD
:104B7000002D0A9C63DDB4BB099DE80733D4149C67
:104B800024EAE4739CE6299B7AE60DF1AA003E4DE7
:104B9000DA1785FB0351C2EBA10101EB8104024648
:104BA000A3EB440303F13000092910700B4602F116
:104BB000FF30ECDC01F130030DF1AB04D9B28442DB
:104BC00002F8011C5AD90DF19D00134601E013F8BB
:104BD000011BA34200F8011FF9D10DF5907CC2EB37
:104BE0004C03F63B72E70A9D6C1C149D2C4424EA8E
:104BF000E47365E6DDE9200100220023FEF752F8A8
:104C000000287FF44AAFC5F1010525952C4424E620
:104C1000149D6C1C24EAE4734FF0670850E6109D65
:104C2000DDF840C02D6899F801800A950CF1040365
:104C3000002D10938146BEF609AEFEF704BE7CB986
:104C4000099DE9070CD401231C4639E6DDF824C090
:104C50001CF001037FF443AF149324EAE4732FE6BE
:104C60000A9DAC1C24EAE4732AE60D9D0C232B60FC
:104C70004FF0FF30FEF7AEBE259B13E70DF19E030C
:104C800024E700BF4079400067666666024B13B1B7
:104C9000024800F005B8704700000000195C4000B1
:104CA000014600200246034602F0E0B92DE9F04F2C
:104CB00003690D699D4283B0834600F38B80013DFB
:104CC00001F1140400F1140A54F825205AF8253093
:104CD0000132B3FBF2F8AA00914600925244A1447B
:104CE0000192B8F1000F3DD04FF0000E7046224601
:104CF00053468C4652F8046B1968B7B2360C07FB62
:104D000008EE06FB08F606EB1E461FFA8EF7C71BD9
:104D1000B0B217FA81F7C0EB114000EB2740BFB2E9
:104D200047EA0047914543F8047B4FEA20404FEAA9
:104D3000164EDFD2009A5AF80230614693B9019AB2
:104D4000131F9A450CD252F8043C4BB9A2F1080348
:104D500002E01A68043B1AB99A4505F1FF35F8D309
:104D6000CBF81050584601F0F5FD00282EDB08F175
:104D700001085346002254F8046B1868B1B2521A65
:104D8000360C12FA80F1C6EB104202EB214289B2D6
:104D900041EA0241A14543F8041B4FEA2242EAD20C
:104DA0005AF825200AEB850382B91A1F92450BD2C7
:104DB00053F8042C42B9083B02E01A68043B1AB9C4
:104DC0009A4505F1FF35F8D3CBF81050404603B0B3
:104DD000BDE8F08F002003B0BDE8F08F00000000B8
:104DE0002DE9F04F016C9BB00446279D92469B46EF
:104DF00049B1436C4B60012202FA03F38B6001F06E
:104E0000B1FB00232364BBF1000FD94633DB002341
:104E10002B60A54B1A4609EA0303934214D050466F
:104E2000594600220023FDF73DFF804648B3269EE9
:104E3000289D01233360002D00F0C9809B48286025
:104E400001381BB0BDE8F08F269D42F20F732B6036
:104E5000BAF1000F00F0A4809548289E002EF0D0F3
:104E6000C378002B00F0B58000F10803289D2B606B
:104E70001BB0BDE8F08F01232BF000492B60CB461F
:104E8000C7E719AA18AB8DE80C00204652465B46CE
:104E900001F0EEFD5FEA19550A9040F08A80189FF4
:104EA000199D6FF482633D449D42C0F294821F338A
:104EB00005F212425B1B09FA03F32AFA02F243EAF3
:104EC0000200FDF711FC0126013DB846A1F1F87181
:104ED00016960022774BFDF7C9FA6DA3D3E900239C
:104EE000FDF778FC6CA3D3E90023FDF7C1FA064671
:104EF00028460F46FDF708FC69A3D3E90023FDF718
:104F000069FC02460B4630463946FDF7B1FA0646C3
:104F10000F4602F02FF93946079000223046002351
:104F2000FDF7CAFE002840F02882079E162E00F2E8
:104F30002182614B03EBC603D3E9000152465B4675
:104F4000FDF7D8FE002800F04B82013E07960026B0
:104F50000E96C5EB0805013D069500F1258200255A
:104F60000895079E002EC0F21682069D0D963544C8
:104F7000002606950C96249D092D2CD8052DC4BF1E
:104F8000043D2495249EA6F10203CCBF00250125F3
:104F9000032B22D8DFE813F0B7039E02C0039A0464
:104FA000464A434BC9F3130000280CBF104618466D
:104FB00053E7CBF3130343F07F51CDF858805046AD
:104FC000A5F2FF3541F44011DDF8608081E73C48EF
:104FD00037E7C31C4AE70025249500256564294668
:104FE000204601F099FA4FF0FF39012609902595E6
:104FF0002064CDF83C900B96199B002BC0F2D28018
:10500000079E0E2E00F3CE802B4B03EBC603D3E995
:105010000001CDE9040125990029C0F28083DDE972
:10502000042359465046FDF7FFFC02F0A3F805465D
:10503000FDF76AFBDDE90423FDF7CCFB02460B46D6
:1050400050465946FDF712FA099A05F13003B9F1B5
:10505000010F06460F46137002F1010B64D00022C7
:10506000184BFDF7B7FB0022002306460F46FDF75D
:1050700019FE002840F08180DDF82480099D03940A
:10508000C844DDE904AB05F1020928E0AFF3008074
:1050900061436F63A787D23FB3C8608B288AC63F3E
:1050A000FB799F501344D33F0000F07F49794000C3
:1050B000687940000000F83F887940005C79400042
:1050C0004879400000002440FDF784FB00220023C3
:1050D00006460F46FDF7E6FD002840F0C183524624
:1050E0005B4630463946FDF79FFC02F043F8054623
:1050F000FDF70AFB52465B46FDF76CFB02460B468A
:1051000030463946FDF7B2F905F1300EC14509F8D0
:1051100001EC4C4606460F464FF00002A74B09F142
:105120000109D1D1A346039C32463B46304639465D
:10513000FDF79EF906460F463246DDE904013B467F
:10514000FDF7BAFD40B9DDE9040132463B46FDF703
:10515000A9FD90B1EB0710D51BF8015C099A05E099
:105160009A4200F0288413F8015C9B46392D0BF11C
:10517000FF33F5D06A1CD2B21A7020460A9901F0AA
:10518000F1F9079E269D731C289E00228BF80020B3
:105190002B60002E00F025830998C6F800B01BB0E4
:1051A000BDE8F08F0B9D002D00F00381249E012EA1
:1051B00040F3DC820C9E09F1FF37BE42C0F28983C6
:1051C000F71BB9F1000FC0F28684089D4B46089E7C
:1051D0001E440896069E20461E440121069601F0B4
:1051E00065FA064665B10698002809DD0346089968
:1051F000AB42A8BF2B46C91AC01A0891ED1A0690F7
:105200000C9A002A1DDD0B9B002B00F05883002F09
:1052100011DD31463A46204601F0F0FA06463146A5
:105220000A9A204601F04CFA0A998046204601F07D
:1052300099F9CDF82880DDF830E0BEEB070240F0A8
:105240008F822046012101F031FA80460D98002816
:1052500005DD414620460D9A01F0D0FA804624999A
:10526000012940F3C18200270D98002840F0AF8249
:105270000120069B034413F01F0300F0A180C3F13B
:105280002002042A40F3B5840899069AC3F11C034E
:1052900019441A4408911D4406920899002905DD15
:1052A0000A99089A204601F0F7FA0A90069A002A0D
:1052B00004DD4146204601F0EFFA80460E9B002BAC
:1052C00040F06A82B9F1000F40F3A6820B980028E3
:1052D00040F088800B9D0A9FDDF824B006E0394637
:1052E00020460A22002301F047F907463846414686
:1052F000FFF7DCFC30300BF805000135A945EEDC8A
:10530000DDF824B00A978246B9F1010FACBFCB4457
:105310000BF1010B00250A990122204601F0BCFA8D
:1053200041460A9001F016FB002840F309831BF860
:10533000012C099905E0994200F08B8213F8012CA9
:105340009B46392A0BF1FF33F5D001321A704146E2
:10535000204601F007F9002E3FF40FAF2DB1B54202
:1053600003D02946204601F0FDF83146204601F0E1
:10537000F9F802E701260E96EBE50798FDF7C4F968
:1053800032463B46FDF78EFC00287FF4CEAD079EEB
:10539000013E0796C9E5079E089DAD1B089575421D
:1053A00000260C950D96E6E56D42002608950696BA
:1053B000D7E50C9F089D0B9E14E700BF000024401A
:1053C0001C23DDF820E006989E441844CDF820E028
:1053D0001D44069061E7A748401B0AFA00F070E5FB
:1053E0000E90B6E5002D05DD31462A46204601F037
:1053F00053FA0646002F40F0E8823746099D099887
:105400004D4408950AF001050B95DDF82890451CE0
:105410000AE001F0B1F8394606460A222046002388
:1054200001F0AAF80746013541464846FFF73EFC21
:1054300031468346484601F08DFA414603903A468C
:10544000204601F0ABFAC268691E03460BF1300A30
:105450000691002A40F0938119464846029301F0D4
:1054600079FA029B024619462046029201F07AF828
:10547000029A2AB9249B1BB90B98002800F091834B
:10548000039B002BC0F2348205D1249818B90B99E4
:10549000002900F02D82002A00F3AB82DDF820E025
:1054A00005F801AC7545AB4600F0B38249460A22C7
:1054B0000023204601F060F8BE4281463146204676
:1054C0004FF00A024FF00003A3D101F055F8064651
:1054D0000746A8E700260B96079EDDF894E0B64441
:1054E0000EF10109B9F1000FCDF83CE04E4640F352
:1054F00050810021172E61640AD9012204235B0028
:1055000003F11400B042114602F10102F7D96164BF
:10551000204601F001F80E2E099020643FF66CAD94
:10552000002D3FF469AD079D002DCDE912AB40F38E
:105530001B82514B05F00F0203EBC2032D11D3E97F
:105540000067EB0640F1CD814C4B50465946D3E9FC
:105550000823FDF769FACDE9100105F00F054FF0BA
:1055600003088DB1DFF814A130463946EE0705D5A2
:10557000DAE9002308F10108FDF72CF96D100AF1B2
:10558000080AF3D106460F46DDE9100132463B46D4
:10559000FDF74AFA82468B460E9D45B15046594664
:1055A0000022374BFDF788FB002840F0A9824046D7
:1055B000FDF7AAF852465B46FDF70CF90022314B85
:1055C000FCF756FF0646A1F15077B9F1000F00F045
:1055D0005A81079D1795C8460B9D002D00F0228229
:1055E000254B294903EBC80353E902230020FDF7AB
:1055F0001BFA32463B46FCF739FFCDE9100159460C
:10560000504601F0B7FD0546FDF77EF802460B4611
:1056100050465946FCF72AFF3035099ECDE9040172
:10562000EDB23570DDE91001DDE9042306F1010B6F
:10563000FDF760FB002840F0A982DDE9042300208B
:105640000F49FCF713FF02460B46DDE91001FDF799
:1056500051FB002840F0A082B8F1010F40F3808197
:10566000B044CDF85090A246C146DDE90467DDE9BB
:10567000104519E0EEFBFFFF88794000507A4000AA
:105680000000F03F00001C400000E03F0020A8495F
:10569000FCF7ECFE22462B46FDF70EFB002840F0FF
:1056A0007982CB4500F05981204629460022A14B42
:1056B000FDF790F800229F4B04460D4630463946D0
:1056C000FDF788F80F46064601F054FD8046FDF7C9
:1056D0001BF802460B4630463946FCF7C7FE08F178
:1056E00030085FFA88F822462B460BF8018B0646F5
:1056F0000F46FDF7E1FA32463B460028C6D0179E1A
:105700000796544639E500260B96259800283CDD7F
:1057100006460F908146ECE601260B96F5E7B9F1B7
:10572000000F3FF77CAC40F0C6800022824BDDE9E1
:105730000401FDF74FF852465B46FDF7D1FAC84623
:105740004E4600287CD0259DDDF824B0ED4307951A
:105750004146204600F006FF002E7FF406AE0CE521
:105760000A99204601F04AF80A906AE5169D002D34
:1057700000F0B78103F233430C9F089D27E50146F3
:10578000204600F0EFFE01227AE6012625960F96CC
:10579000B14600216164BBE60A98414601F0DAF89F
:1057A0000028BFF68FADDDF81CE00A990EF1FF3E30
:1057B00020460A220023CDF81CE000F0DDFE0A900E
:1057C0000B98002840F00782DDF83C907AE5D8F885
:1057D000103008EB8303186900F01AFFC0F12000B5
:1057E00047E50998FFF72DBBBAF1000F7FF43BADF9
:1057F000CBF31303002B40F07B812BF000473F0DD0
:105800003F05002F3FF430AD089A069B013201336B
:1058100008920693012727E5249902297FF756ADC0
:10582000B9F1000F8FD141464B460522204600F0CA
:10583000A3FE804641460A9801F08CF8002882DDDC
:10584000079D01350795099D31232B7005F1010B4B
:105850007EE7079809993123013007900B7076E5B0
:10586000A346039C89E44046FCF74EFF02460B46E4
:1058700050465946FCF7AEFF0022304BFCF7F8FDCE
:105880000646A1F150775046594600222A4BFCF7B4
:10589000EDFD32463B4682468B46FDF72BFA00284B
:1058A00040F0BC80324607F1004350465946FDF7B0
:1058B00003FA002854D04FF00008464643E70A99FF
:1058C0000C9A204600F09AFF0A90BAE401260B9643
:1058D00002E60C9D0D9E0C977B1B1E440D96002727
:1058E0006FE4DDE912014FF00208CDE9100138E65E
:1058F000002ACDF82890D94611DD0A9901222046C8
:1059000000F0CAFF41460A9001F024F8002840F355
:105910005B81BAF1390F00F01A8109F1310A069B57
:10592000354683F800A003F1010B3E460FE500BFAA
:105930000000F03F000024400000144000001C4024
:1059400003D11AF0010F7FF4F2AC5B469B46013B9A
:105950001BF8012C302AF9D0F9E4DDF850905446B8
:10596000DDE912ABFFF748BB079E7542002D00F042
:10597000C280A34B05F00F0203EBC203D3E900235F
:10598000DDE91201FCF726FF2D1182468B4600F05F
:105990002D819C4E4FF00208EA0705D5D6E9002379
:1059A00008F10108FCF716FF6D1006F10806F3D1A7
:1059B00082468B46F0E5079E099D30222A7001360B
:1059C000312207961A70FFF7D8BB7168204600F0A5
:1059D000A3FD33699A1C0546920006F10C010C30B8
:1059E000FDF704FD20462946012200F055FF074639
:1059F00004E5BAF1390FCDF8289000F0A880069D93
:105A00000AF101032B703546069E06F1010B3E4656
:105A10009DE43546CDF828903E467CE44FF00008E2
:105A200046460DE7764908F1FF3501EBC5013246E0
:105A30003B46D1E900011095FCF7CCFECDE91401FD
:105A40005946504601F096FB0546FCF75DFE0246BE
:105A50000B4650465946FCF709FDDDF824E0303589
:105A6000B8F1010F06460F468EF800500EF1010BFB
:105A70001ED0099D6B1E03EB080A0022624BFCF747
:105A8000A9FE0F46064601F075FB8046FCF73CFE7A
:105A900008F1300802460B4630463946FCF7E6FC72
:105AA00005F8018F5545E8D1109D06460F46AB44D9
:105AB0000022564BDDE91401FCF7DAFC32463B4686
:105AC000FDF7FAF800284DD0179E07961BF8015CE9
:105AD000099AFFF74BBB089E0023C9EB0605FFF7A9
